{
  "contractName": "ConnectAuth",
  "abi": [
    {
      "anonymous": false,
      "inputs": [
        {
          "indexed": true,
          "internalType": "address",
          "name": "_msgSender",
          "type": "address"
        },
        {
          "indexed": true,
          "internalType": "address",
          "name": "_auth",
          "type": "address"
        }
      ],
      "name": "LogAddAuth",
      "type": "event"
    },
    {
      "anonymous": false,
      "inputs": [
        {
          "indexed": true,
          "internalType": "address",
          "name": "_msgSender",
          "type": "address"
        },
        {
          "indexed": true,
          "internalType": "address",
          "name": "_auth",
          "type": "address"
        }
      ],
      "name": "LogRemoveAuth",
      "type": "event"
    },
    {
      "inputs": [
        {
          "internalType": "address",
          "name": "user",
          "type": "address"
        }
      ],
      "name": "addModule",
      "outputs": [],
      "stateMutability": "payable",
      "type": "function"
    },
    {
      "inputs": [],
      "name": "connectorID",
      "outputs": [
        {
          "internalType": "uint256",
          "name": "_type",
          "type": "uint256"
        },
        {
          "internalType": "uint256",
          "name": "_id",
          "type": "uint256"
        }
      ],
      "stateMutability": "pure",
      "type": "function"
    },
    {
      "inputs": [],
      "name": "getEventAddr",
      "outputs": [
        {
          "internalType": "address",
          "name": "",
          "type": "address"
        }
      ],
      "stateMutability": "pure",
      "type": "function"
    },
    {
      "inputs": [],
      "name": "name",
      "outputs": [
        {
          "internalType": "string",
          "name": "",
          "type": "string"
        }
      ],
      "stateMutability": "view",
      "type": "function"
    },
    {
      "inputs": [
        {
          "internalType": "address",
          "name": "user",
          "type": "address"
        }
      ],
      "name": "removeModule",
      "outputs": [],
      "stateMutability": "payable",
      "type": "function"
    }
  ],
  "bytecode": "0x608060405234801561001057600080fd5b506107e7806100206000396000f3fe60806040526004361061004a5760003560e01c806306fdde031461004f5780631ed86f19146100df578063a063246114610123578063e82eb6fa14610167578063eb15f781146101be575b600080fd5b34801561005b57600080fd5b506100646101f0565b6040518080602001828103825283818151815260200191508051906020019080838360005b838110156100a4578082015181840152602081019050610089565b50505050905090810190601f1680156100d15780820380516001836020036101000a031916815260200191505b509250505060405180910390f35b610121600480360360208110156100f557600080fd5b81019080803573ffffffffffffffffffffffffffffffffffffffff169060200190929190505050610229565b005b6101656004803603602081101561013957600080fd5b81019080803573ffffffffffffffffffffffffffffffffffffffff1690602001909291905050506104dd565b005b34801561017357600080fd5b5061017c610791565b604051808273ffffffffffffffffffffffffffffffffffffffff1673ffffffffffffffffffffffffffffffffffffffff16815260200191505060405180910390f35b3480156101ca57600080fd5b506101d3610799565b604051808381526020018281526020019250505060405180910390f35b6040518060400160405280600781526020017f417574682d76310000000000000000000000000000000000000000000000000081525081565b3073ffffffffffffffffffffffffffffffffffffffff16635bfa1b68826040518263ffffffff1660e01b8152600401808273ffffffffffffffffffffffffffffffffffffffff1673ffffffffffffffffffffffffffffffffffffffff168152602001915050600060405180830381600087803b1580156102a857600080fd5b505af11580156102bc573d6000803e3d6000fd5b505050508073ffffffffffffffffffffffffffffffffffffffff163373ffffffffffffffffffffffffffffffffffffffff167f0a0883e359d023e38c8befc2b894f838c1942537ae51cba71e2bc651af2b3a5d60405160405180910390a3600060405180807f4c6f674164644175746828616464726573732c61646472657373290000000000815250601b0190506040518091039020905060603383604051602001808373ffffffffffffffffffffffffffffffffffffffff1673ffffffffffffffffffffffffffffffffffffffff1681526020018273ffffffffffffffffffffffffffffffffffffffff1673ffffffffffffffffffffffffffffffffffffffff1681526020019250505060405160208183030381529060405290506000806103e3610799565b915091506103ef610791565b73ffffffffffffffffffffffffffffffffffffffff1663e14d4fb1838387876040518563ffffffff1660e01b81526004018085815260200184815260200183815260200180602001828103825283818151815260200191508051906020019080838360005b8381101561046f578082015181840152602081019050610454565b50505050905090810190601f16801561049c5780820380516001836020036101000a031916815260200191505b5095505050505050600060405180830381600087803b1580156104be57600080fd5b505af11580156104d2573d6000803e3d6000fd5b505050505050505050565b3073ffffffffffffffffffffffffffffffffffffffff1663e6c09edf826040518263ffffffff1660e01b8152600401808273ffffffffffffffffffffffffffffffffffffffff1673ffffffffffffffffffffffffffffffffffffffff168152602001915050600060405180830381600087803b15801561055c57600080fd5b505af1158015610570573d6000803e3d6000fd5b505050508073ffffffffffffffffffffffffffffffffffffffff163373ffffffffffffffffffffffffffffffffffffffff167f7289d07acd866f85ba9176bdbac8304ca6072c00bde3d94c43afd8fbc8114db860405160405180910390a3600060405180807f4c6f6752656d6f76654175746828616464726573732c61646472657373290000815250601e0190506040518091039020905060603383604051602001808373ffffffffffffffffffffffffffffffffffffffff1673ffffffffffffffffffffffffffffffffffffffff1681526020018273ffffffffffffffffffffffffffffffffffffffff1673ffffffffffffffffffffffffffffffffffffffff168152602001925050506040516020818303038152906040529050600080610697610799565b915091506106a3610791565b73ffffffffffffffffffffffffffffffffffffffff1663e14d4fb1838387876040518563ffffffff1660e01b81526004018085815260200184815260200183815260200180602001828103825283818151815260200191508051906020019080838360005b83811015610723578082015181840152602081019050610708565b50505050905090810190601f1680156107505780820380516001836020036101000a031916815260200191505b5095505050505050600060405180830381600087803b15801561077257600080fd5b505af1158015610786573d6000803e3d6000fd5b505050505050505050565b600080905090565b6000806001808191508090508092508193505050909156fea2646970667358221220ffd42da00ee7502e339b650f104f59f5c3a14389fb3ab248ac5c5c659858865c64736f6c63430006020033",
  "source": "pragma solidity ^0.6.0;\n\n/**\n * @title ConnectAuth.\n * @dev Connector For Adding Auth.\n */\n\ninterface AccountInterface {\n    function enable(address user) external;\n    function disable(address user) external;\n}\n\ninterface EventInterface {\n    function emitEvent(uint _connectorType, uint _connectorID, bytes32 _eventCode, bytes calldata _eventData) external;\n}\n\n\ncontract Basics {\n\n    /**\n     * @dev Return InstaEvent Address.\n     */\n    function getEventAddr() public pure returns (address) {\n        return 0x0000000000000000000000000000000000000000;\n    }\n\n     /**\n     * @dev Connector ID and Type.\n     */\n    function connectorID() public pure returns(uint _type, uint _id) {\n        (_type, _id) = (1, 1);\n    }\n\n}\n\n\ncontract Auth is Basics {\n\n    event LogAddAuth(address indexed _msgSender, address indexed _auth);\n    event LogRemoveAuth(address indexed _msgSender, address indexed _auth);\n\n    /**\n     * @dev Add New Owner\n     * @param user User Address.\n     */\n    function addModule(address user) public payable {\n        AccountInterface(address(this)).enable(user);\n\n        emit LogAddAuth(msg.sender, user);\n\n        bytes32 _eventCode = keccak256(\"LogAddAuth(address,address)\");\n        bytes memory _eventParam = abi.encode(msg.sender, user);\n        (uint _type, uint _id) = connectorID();\n        EventInterface(getEventAddr()).emitEvent(_type, _id, _eventCode, _eventParam);\n    }\n\n    /**\n     * @dev Remove New Owner\n     * @param user User Address.\n     */\n    function removeModule(address user) public payable {\n        AccountInterface(address(this)).disable(user);\n\n        emit LogRemoveAuth(msg.sender, user);\n\n        bytes32 _eventCode = keccak256(\"LogRemoveAuth(address,address)\");\n        bytes memory _eventParam = abi.encode(msg.sender, user);\n        (uint _type, uint _id) = connectorID();\n        EventInterface(getEventAddr()).emitEvent(_type, _id, _eventCode, _eventParam);\n    }\n\n}\n\n\ncontract ConnectAuth is Auth {\n    string constant public name = \"Auth-v1\";\n}",
  "sourcePath": "/Users/mariejoseph/Documents/Gelato/StopLoss/instaDapp/dsa-contracts/contracts/connectors/auth.sol",
  "compiler": {
    "name": "solc",
    "version": "0.6.2+commit.bacdbe57.Emscripten.clang"
  },
  "schemaVersion": "3.2.4",
  "updatedAt": "2020-09-17T17:51:57.759Z",
  "devdoc": {
    "methods": {
      "addModule(address)": {
        "details": "Add New Owner",
        "params": {
          "user": "User Address."
        }
      },
      "connectorID()": {
        "details": "Connector ID and Type."
      },
      "getEventAddr()": {
        "details": "Return InstaEvent Address."
      },
      "removeModule(address)": {
        "details": "Remove New Owner",
        "params": {
          "user": "User Address."
        }
      }
    }
  },
  "userdoc": {
    "methods": {}
  }
}