{
  "contractName": "ConnectBasic",
  "abi": [
    {
      "anonymous": false,
      "inputs": [
        {
          "indexed": true,
          "internalType": "address",
          "name": "erc20",
          "type": "address"
        },
        {
          "indexed": false,
          "internalType": "uint256",
          "name": "tokenAmt",
          "type": "uint256"
        },
        {
          "indexed": false,
          "internalType": "uint256",
          "name": "getId",
          "type": "uint256"
        },
        {
          "indexed": false,
          "internalType": "uint256",
          "name": "setId",
          "type": "uint256"
        }
      ],
      "name": "LogDeposit",
      "type": "event"
    },
    {
      "anonymous": false,
      "inputs": [
        {
          "indexed": true,
          "internalType": "address",
          "name": "erc20",
          "type": "address"
        },
        {
          "indexed": false,
          "internalType": "uint256",
          "name": "tokenAmt",
          "type": "uint256"
        },
        {
          "indexed": true,
          "internalType": "address",
          "name": "to",
          "type": "address"
        },
        {
          "indexed": false,
          "internalType": "uint256",
          "name": "getId",
          "type": "uint256"
        },
        {
          "indexed": false,
          "internalType": "uint256",
          "name": "setId",
          "type": "uint256"
        }
      ],
      "name": "LogWithdraw",
      "type": "event"
    },
    {
      "inputs": [],
      "name": "connectorID",
      "outputs": [
        {
          "internalType": "uint256",
          "name": "_type",
          "type": "uint256"
        },
        {
          "internalType": "uint256",
          "name": "_id",
          "type": "uint256"
        }
      ],
      "stateMutability": "pure",
      "type": "function"
    },
    {
      "inputs": [
        {
          "internalType": "address",
          "name": "erc20",
          "type": "address"
        },
        {
          "internalType": "uint256",
          "name": "tokenAmt",
          "type": "uint256"
        },
        {
          "internalType": "uint256",
          "name": "getId",
          "type": "uint256"
        },
        {
          "internalType": "uint256",
          "name": "setId",
          "type": "uint256"
        }
      ],
      "name": "deposit",
      "outputs": [],
      "stateMutability": "payable",
      "type": "function"
    },
    {
      "inputs": [],
      "name": "getEthAddr",
      "outputs": [
        {
          "internalType": "address",
          "name": "",
          "type": "address"
        }
      ],
      "stateMutability": "pure",
      "type": "function"
    },
    {
      "inputs": [],
      "name": "getEventAddr",
      "outputs": [
        {
          "internalType": "address",
          "name": "",
          "type": "address"
        }
      ],
      "stateMutability": "pure",
      "type": "function"
    },
    {
      "inputs": [],
      "name": "getMemoryAddr",
      "outputs": [
        {
          "internalType": "address",
          "name": "",
          "type": "address"
        }
      ],
      "stateMutability": "pure",
      "type": "function"
    },
    {
      "inputs": [],
      "name": "name",
      "outputs": [
        {
          "internalType": "string",
          "name": "",
          "type": "string"
        }
      ],
      "stateMutability": "view",
      "type": "function"
    },
    {
      "inputs": [
        {
          "internalType": "address",
          "name": "erc20",
          "type": "address"
        },
        {
          "internalType": "uint256",
          "name": "tokenAmt",
          "type": "uint256"
        },
        {
          "internalType": "address payable",
          "name": "to",
          "type": "address"
        },
        {
          "internalType": "uint256",
          "name": "getId",
          "type": "uint256"
        },
        {
          "internalType": "uint256",
          "name": "setId",
          "type": "uint256"
        }
      ],
      "name": "withdraw",
      "outputs": [],
      "stateMutability": "payable",
      "type": "function"
    }
  ],
  "bytecode": "0x608060405234801561001057600080fd5b50611016806100206000396000f3fe6080604052600436106100705760003560e01c8063ce88b4391161004e578063ce88b439146101de578063e82eb6fa14610240578063eb15f78114610297578063fa821c9b146102c957610070565b806306fdde0314610075578063202bb80c146101055780634bd3ab821461015c575b600080fd5b34801561008157600080fd5b5061008a610320565b6040518080602001828103825283818151815260200191508051906020019080838360005b838110156100ca5780820151818401526020810190506100af565b50505050905090810190601f1680156100f75780820380516001836020036101000a031916815260200191505b509250505060405180910390f35b34801561011157600080fd5b5061011a610359565b604051808273ffffffffffffffffffffffffffffffffffffffff1673ffffffffffffffffffffffffffffffffffffffff16815260200191505060405180910390f35b6101dc600480360360a081101561017257600080fd5b81019080803573ffffffffffffffffffffffffffffffffffffffff16906020019092919080359060200190929190803573ffffffffffffffffffffffffffffffffffffffff1690602001909291908035906020019092919080359060200190929190505050610375565b005b61023e600480360360808110156101f457600080fd5b81019080803573ffffffffffffffffffffffffffffffffffffffff169060200190929190803590602001909291908035906020019092919080359060200190929190505050610959565b005b34801561024c57600080fd5b50610255610e24565b604051808273ffffffffffffffffffffffffffffffffffffffff1673ffffffffffffffffffffffffffffffffffffffff16815260200191505060405180910390f35b3480156102a357600080fd5b506102ac610e2c565b604051808381526020018281526020019250505060405180910390f35b3480156102d557600080fd5b506102de610e45565b604051808273ffffffffffffffffffffffffffffffffffffffff1673ffffffffffffffffffffffffffffffffffffffff16815260200191505060405180910390f35b6040518060400160405280600881526020017f42617369632d763100000000000000000000000000000000000000000000000081525081565b600073eeeeeeeeeeeeeeeeeeeeeeeeeeeeeeeeeeeeeeee905090565b3073ffffffffffffffffffffffffffffffffffffffff16632520e7ff846040518263ffffffff1660e01b8152600401808273ffffffffffffffffffffffffffffffffffffffff1673ffffffffffffffffffffffffffffffffffffffff16815260200191505060206040518083038186803b1580156103f257600080fd5b505afa158015610406573d6000803e3d6000fd5b505050506040513d602081101561041c57600080fd5b810190808051906020019092919050505061049f576040517f08c379a00000000000000000000000000000000000000000000000000000000081526004018080602001828103825260128152602001807f696e76616c69642d746f2d61646472657373000000000000000000000000000081525060200191505060405180910390fd5b60006104ab8386610e4d565b90506104b5610359565b73ffffffffffffffffffffffffffffffffffffffff168673ffffffffffffffffffffffffffffffffffffffff161415610565577fffffffffffffffffffffffffffffffffffffffffffffffffffffffffffffffff81146105155780610517565b475b90508373ffffffffffffffffffffffffffffffffffffffff166108fc829081150290604051600060405180830381858888f1935050505015801561055f573d6000803e3d6000fd5b50610717565b60008690507fffffffffffffffffffffffffffffffffffffffffffffffffffffffffffffffff82146105975781610650565b8073ffffffffffffffffffffffffffffffffffffffff166370a08231306040518263ffffffff1660e01b8152600401808273ffffffffffffffffffffffffffffffffffffffff1673ffffffffffffffffffffffffffffffffffffffff16815260200191505060206040518083038186803b15801561061457600080fd5b505afa158015610628573d6000803e3d6000fd5b505050506040513d602081101561063e57600080fd5b81019080805190602001909291905050505b91508073ffffffffffffffffffffffffffffffffffffffff1663a9059cbb86846040518363ffffffff1660e01b8152600401808373ffffffffffffffffffffffffffffffffffffffff1673ffffffffffffffffffffffffffffffffffffffff16815260200182815260200192505050602060405180830381600087803b1580156106d957600080fd5b505af11580156106ed573d6000803e3d6000fd5b505050506040513d602081101561070357600080fd5b810190808051906020019092919050505050505b6107218282610efa565b8373ffffffffffffffffffffffffffffffffffffffff168673ffffffffffffffffffffffffffffffffffffffff167fbda29dc1242153445159457be3dc12cdc3b4ca777000c536f8a42078b029672d83868660405180848152602001838152602001828152602001935050505060405180910390a360006040518080610fad6034913960340190506040518091039020905060608783878787604051602001808673ffffffffffffffffffffffffffffffffffffffff1673ffffffffffffffffffffffffffffffffffffffff1681526020018581526020018473ffffffffffffffffffffffffffffffffffffffff1673ffffffffffffffffffffffffffffffffffffffff16815260200183815260200182815260200195505050505050604051602081830303815290604052905060008061085a610e2c565b91509150610866610e24565b73ffffffffffffffffffffffffffffffffffffffff1663e14d4fb1838387876040518563ffffffff1660e01b81526004018085815260200184815260200183815260200180602001828103825283818151815260200191508051906020019080838360005b838110156108e65780820151818401526020810190506108cb565b50505050905090810190601f1680156109135780820380516001836020036101000a031916815260200191505b5095505050505050600060405180830381600087803b15801561093557600080fd5b505af1158015610949573d6000803e3d6000fd5b5050505050505050505050505050565b60006109658385610e4d565b905061096f610359565b73ffffffffffffffffffffffffffffffffffffffff168573ffffffffffffffffffffffffffffffffffffffff1614610b8b5760008590507fffffffffffffffffffffffffffffffffffffffffffffffffffffffffffffffff82146109d35781610a8c565b8073ffffffffffffffffffffffffffffffffffffffff166370a08231336040518263ffffffff1660e01b8152600401808273ffffffffffffffffffffffffffffffffffffffff1673ffffffffffffffffffffffffffffffffffffffff16815260200191505060206040518083038186803b158015610a5057600080fd5b505afa158015610a64573d6000803e3d6000fd5b505050506040513d6020811015610a7a57600080fd5b81019080805190602001909291905050505b91508073ffffffffffffffffffffffffffffffffffffffff166323b872dd3330856040518463ffffffff1660e01b8152600401808473ffffffffffffffffffffffffffffffffffffffff1673ffffffffffffffffffffffffffffffffffffffff1681526020018373ffffffffffffffffffffffffffffffffffffffff1673ffffffffffffffffffffffffffffffffffffffff1681526020018281526020019350505050602060405180830381600087803b158015610b4957600080fd5b505af1158015610b5d573d6000803e3d6000fd5b505050506040513d6020811015610b7357600080fd5b81019080805190602001909291905050505050610c2e565b80341480610bb857507fffffffffffffffffffffffffffffffffffffffffffffffffffffffffffffffff81145b610c2a576040517f08c379a00000000000000000000000000000000000000000000000000000000081526004018080602001828103825260148152602001807f696e76616c69642d65746865722d616d6f756e7400000000000000000000000081525060200191505060405180910390fd5b3490505b610c388282610efa565b8473ffffffffffffffffffffffffffffffffffffffff167f4b2bcb0ca50531683faa51870e1018aa0d7272c7f2acc5399389b0c0493865d982858560405180848152602001838152602001828152602001935050505060405180910390a260006040518080610f82602b9139602b01905060405180910390209050606086838686604051602001808573ffffffffffffffffffffffffffffffffffffffff1673ffffffffffffffffffffffffffffffffffffffff1681526020018481526020018381526020018281526020019450505050506040516020818303038152906040529050600080610d26610e2c565b91509150610d32610e24565b73ffffffffffffffffffffffffffffffffffffffff1663e14d4fb1838387876040518563ffffffff1660e01b81526004018085815260200184815260200183815260200180602001828103825283818151815260200191508051906020019080838360005b83811015610db2578082015181840152602081019050610d97565b50505050905090810190601f168015610ddf5780820380516001836020036101000a031916815260200191505b5095505050505050600060405180830381600087803b158015610e0157600080fd5b505af1158015610e15573d6000803e3d6000fd5b50505050505050505050505050565b600080905090565b6000806001600281915080905080925081935050509091565b600080905090565b6000808314610ef057610e5e610e45565b73ffffffffffffffffffffffffffffffffffffffff1663a9c70eaa846040518263ffffffff1660e01b815260040180828152602001915050602060405180830381600087803b158015610eb057600080fd5b505af1158015610ec4573d6000803e3d6000fd5b505050506040513d6020811015610eda57600080fd5b8101908080519060200190929190505050610ef2565b815b905092915050565b60008214610f7d57610f0a610e45565b73ffffffffffffffffffffffffffffffffffffffff166361e3c94483836040518363ffffffff1660e01b81526004018083815260200182815260200192505050600060405180830381600087803b158015610f6457600080fd5b505af1158015610f78573d6000803e3d6000fd5b505050505b505056fe4c6f674465706f73697428616464726573732c75696e743235362c75696e743235362c75696e74323536294c6f67576974686472617728616464726573732c75696e743235362c616464726573732c75696e743235362c75696e7432353629a264697066735822122088d9144bbf1286eb4c206c67d724fde4a1f76393e94520b993a82352b0518fd964736f6c63430006020033",
  "source": "pragma solidity ^0.6.0;\n\n/**\n * @title ConnectBasic.\n * @dev Connector to deposit/withdraw assets.\n */\n\ninterface ERC20Interface {\n    function allowance(address, address) external view returns (uint);\n    function balanceOf(address) external view returns (uint);\n    function approve(address, uint) external;\n    function transfer(address, uint) external returns (bool);\n    function transferFrom(address, address, uint) external returns (bool);\n}\n\ninterface AccountInterface {\n    function isAuth(address _user) external view returns (bool);\n}\n\ninterface MemoryInterface {\n    function getUint(uint _id) external returns (uint _num);\n    function setUint(uint _id, uint _val) external;\n}\n\ninterface EventInterface {\n    function emitEvent(uint _connectorType, uint _connectorID, bytes32 _eventCode, bytes calldata _eventData) external;\n}\n\ncontract Memory {\n\n    /**\n     * @dev Return InstaMemory Address.\n     */\n    function getMemoryAddr() public pure returns (address) {\n        return 0x0000000000000000000000000000000000000000; // InstaMemory Address\n    }\n\n    /**\n     * @dev Return InstaEvent Address.\n     */\n    function getEventAddr() public pure returns (address) {\n        return 0x0000000000000000000000000000000000000000; // InstaEvent Address\n    }\n\n    /**\n     * @dev Get Stored Uint Value From InstaMemory.\n     * @param getId Storage ID.\n     * @param val if any value.\n     */\n    function getUint(uint getId, uint val) internal returns (uint returnVal) {\n        returnVal = getId == 0 ? val : MemoryInterface(getMemoryAddr()).getUint(getId);\n    }\n\n    /**\n     * @dev Store Uint Value In InstaMemory.\n     * @param setId Storage ID.\n     * @param val Value To store.\n     */\n    function setUint(uint setId, uint val) internal {\n        if (setId != 0) MemoryInterface(getMemoryAddr()).setUint(setId, val);\n    }\n\n    /**\n     * @dev Connector ID and Type.\n     */\n    function connectorID() public pure returns(uint _type, uint _id) {\n        (_type, _id) = (1, 2);\n    }\n\n}\n\ncontract BasicResolver is Memory {\n\n    event LogDeposit(address indexed erc20, uint256 tokenAmt, uint256 getId, uint256 setId);\n    event LogWithdraw(address indexed erc20, uint256 tokenAmt, address indexed to, uint256 getId, uint256 setId);\n\n    /**\n     * @dev ETH Address.\n     */\n    function getEthAddr() public pure returns (address) {\n        return 0xEeeeeEeeeEeEeeEeEeEeeEEEeeeeEeeeeeeeEEeE;\n    }\n\n    /**\n     * @dev Deposit Assets To Smart Account.\n     * @param erc20 Token Address.\n     * @param tokenAmt Token Amount.\n     * @param getId Get Storage ID.\n     * @param setId Set Storage ID.\n     */\n    function deposit(address erc20, uint tokenAmt, uint getId, uint setId) public payable {\n        uint amt = getUint(getId, tokenAmt);\n        if (erc20 != getEthAddr()) {\n            ERC20Interface token = ERC20Interface(erc20);\n            amt = amt == uint(-1) ? token.balanceOf(msg.sender) : amt;\n            token.transferFrom(msg.sender, address(this), amt);\n        } else {\n            require(msg.value == amt || amt == uint(-1), \"invalid-ether-amount\");\n            amt = msg.value;\n        }\n        setUint(setId, amt);\n\n        emit LogDeposit(erc20, amt, getId, setId);\n\n        bytes32 _eventCode = keccak256(\"LogDeposit(address,uint256,uint256,uint256)\");\n        bytes memory _eventParam = abi.encode(erc20, amt, getId, setId);\n        (uint _type, uint _id) = connectorID();\n        EventInterface(getEventAddr()).emitEvent(_type, _id, _eventCode, _eventParam);\n    }\n\n   /**\n     * @dev Withdraw Assets To Smart Account.\n     * @param erc20 Token Address.\n     * @param tokenAmt Token Amount.\n     * @param to Withdraw token address.\n     * @param getId Get Storage ID.\n     * @param setId Set Storage ID.\n     */\n    function withdraw(\n        address erc20,\n        uint tokenAmt,\n        address payable to,\n        uint getId,\n        uint setId\n    ) public payable {\n        require(AccountInterface(address(this)).isAuth(to), \"invalid-to-address\");\n        uint amt = getUint(getId, tokenAmt);\n        if (erc20 == getEthAddr()) {\n            amt = amt == uint(-1) ? address(this).balance : amt;\n            to.transfer(amt);\n        } else {\n            ERC20Interface token = ERC20Interface(erc20);\n            amt = amt == uint(-1) ? token.balanceOf(address(this)) : amt;\n            token.transfer(to, amt);\n        }\n        setUint(setId, amt);\n\n        emit LogWithdraw(erc20, amt, to, getId, setId);\n\n        bytes32 _eventCode = keccak256(\"LogWithdraw(address,uint256,address,uint256,uint256)\");\n        bytes memory _eventParam = abi.encode(erc20, amt, to, getId, setId);\n        (uint _type, uint _id) = connectorID();\n        EventInterface(getEventAddr()).emitEvent(_type, _id, _eventCode, _eventParam);\n    }\n\n}\n\n\ncontract ConnectBasic is BasicResolver {\n    string public constant name = \"Basic-v1\";\n}",
  "sourcePath": "/Users/mariejoseph/Documents/Gelato/StopLoss/instaDapp/dsa-contracts/contracts/connectors/basic.sol",
  "compiler": {
    "name": "solc",
    "version": "0.6.2+commit.bacdbe57.Emscripten.clang"
  },
  "schemaVersion": "3.2.4",
  "updatedAt": "2020-09-17T17:51:57.774Z",
  "devdoc": {
    "methods": {
      "connectorID()": {
        "details": "Connector ID and Type."
      },
      "deposit(address,uint256,uint256,uint256)": {
        "details": "Deposit Assets To Smart Account.",
        "params": {
          "erc20": "Token Address.",
          "getId": "Get Storage ID.",
          "setId": "Set Storage ID.",
          "tokenAmt": "Token Amount."
        }
      },
      "getEthAddr()": {
        "details": "ETH Address."
      },
      "getEventAddr()": {
        "details": "Return InstaEvent Address."
      },
      "getMemoryAddr()": {
        "details": "Return InstaMemory Address."
      },
      "withdraw(address,uint256,address,uint256,uint256)": {
        "details": "Withdraw Assets To Smart Account.",
        "params": {
          "erc20": "Token Address.",
          "getId": "Get Storage ID.",
          "setId": "Set Storage ID.",
          "to": "Withdraw token address.",
          "tokenAmt": "Token Amount."
        }
      }
    }
  },
  "userdoc": {
    "methods": {}
  }
}