{
  "contractName": "InstaAccount",
  "abi": [
    {
      "anonymous": false,
      "inputs": [
        {
          "indexed": true,
          "internalType": "address",
          "name": "origin",
          "type": "address"
        },
        {
          "indexed": true,
          "internalType": "address",
          "name": "sender",
          "type": "address"
        },
        {
          "indexed": false,
          "internalType": "uint256",
          "name": "value",
          "type": "uint256"
        }
      ],
      "name": "LogCast",
      "type": "event"
    },
    {
      "anonymous": false,
      "inputs": [
        {
          "indexed": true,
          "internalType": "address",
          "name": "user",
          "type": "address"
        }
      ],
      "name": "LogDisable",
      "type": "event"
    },
    {
      "anonymous": false,
      "inputs": [
        {
          "indexed": true,
          "internalType": "address",
          "name": "user",
          "type": "address"
        }
      ],
      "name": "LogEnable",
      "type": "event"
    },
    {
      "anonymous": false,
      "inputs": [
        {
          "indexed": false,
          "internalType": "bool",
          "name": "_shield",
          "type": "bool"
        }
      ],
      "name": "LogSwitchShield",
      "type": "event"
    },
    {
      "inputs": [
        {
          "internalType": "address",
          "name": "user",
          "type": "address"
        }
      ],
      "name": "disable",
      "outputs": [],
      "stateMutability": "nonpayable",
      "type": "function"
    },
    {
      "inputs": [
        {
          "internalType": "address",
          "name": "user",
          "type": "address"
        }
      ],
      "name": "enable",
      "outputs": [],
      "stateMutability": "nonpayable",
      "type": "function"
    },
    {
      "inputs": [],
      "name": "instaIndex",
      "outputs": [
        {
          "internalType": "address",
          "name": "",
          "type": "address"
        }
      ],
      "stateMutability": "view",
      "type": "function"
    },
    {
      "inputs": [
        {
          "internalType": "address",
          "name": "user",
          "type": "address"
        }
      ],
      "name": "isAuth",
      "outputs": [
        {
          "internalType": "bool",
          "name": "",
          "type": "bool"
        }
      ],
      "stateMutability": "view",
      "type": "function"
    },
    {
      "inputs": [],
      "name": "shield",
      "outputs": [
        {
          "internalType": "bool",
          "name": "",
          "type": "bool"
        }
      ],
      "stateMutability": "view",
      "type": "function"
    },
    {
      "inputs": [
        {
          "internalType": "bool",
          "name": "_shield",
          "type": "bool"
        }
      ],
      "name": "switchShield",
      "outputs": [],
      "stateMutability": "nonpayable",
      "type": "function"
    },
    {
      "inputs": [],
      "name": "version",
      "outputs": [
        {
          "internalType": "uint256",
          "name": "",
          "type": "uint256"
        }
      ],
      "stateMutability": "view",
      "type": "function"
    },
    {
      "stateMutability": "payable",
      "type": "receive"
    },
    {
      "inputs": [
        {
          "internalType": "address[]",
          "name": "_targets",
          "type": "address[]"
        },
        {
          "internalType": "bytes[]",
          "name": "_datas",
          "type": "bytes[]"
        },
        {
          "internalType": "address",
          "name": "_origin",
          "type": "address"
        }
      ],
      "name": "cast",
      "outputs": [],
      "stateMutability": "payable",
      "type": "function"
    }
  ],
  "bytecode": "0x608060405234801561001057600080fd5b5061196d806100206000396000f3fe60806040526004361061007f5760003560e01c806370d39cff1161004e57806370d39cff14610145578063a41098bf14610170578063e0e90acf1461019b578063e6c09edf146101b757610086565b80632520e7ff1461008b578063501b9b67146100c857806354fd4d50146100f15780635bfa1b681461011c57610086565b3661008657005b600080fd5b34801561009757600080fd5b506100b260048036036100ad919081019061119e565b6101e0565b6040516100bf91906116bb565b60405180910390f35b3480156100d457600080fd5b506100ef60048036036100ea9190810190611279565b610235565b005b3480156100fd57600080fd5b50610106610379565b6040516101139190611856565b60405180910390f35b34801561012857600080fd5b50610143600480360361013e919081019061119e565b61037e565b005b34801561015157600080fd5b5061015a6106a5565b60405161016791906116bb565b60405180910390f35b34801561017c57600080fd5b506101856106b8565b604051610192919061167c565b60405180910390f35b6101b560048036036101b091908101906111f0565b6106bd565b005b3480156101c357600080fd5b506101de60048036036101d9919081019061119e565b610d34565b005b60008060008373ffffffffffffffffffffffffffffffffffffffff1673ffffffffffffffffffffffffffffffffffffffff16815260200190815260200160002060009054906101000a900460ff169050919050565b6000803373ffffffffffffffffffffffffffffffffffffffff1673ffffffffffffffffffffffffffffffffffffffff16815260200190815260200160002060009054906101000a900460ff166102c0576040517f08c379a00000000000000000000000000000000000000000000000000000000081526004016102b7906117b6565b60405180910390fd5b801515600160009054906101000a900460ff1615151415610316576040517f08c379a000000000000000000000000000000000000000000000000000000000815260040161030d90611836565b60405180910390fd5b80600160006101000a81548160ff0219169083151502179055507f38a4860f1db0d5ebd83e321dae638039485f74aca43265d0772f95ac9267830d600160009054906101000a900460ff1660405161036e91906116bb565b60405180910390a150565b600181565b3073ffffffffffffffffffffffffffffffffffffffff163373ffffffffffffffffffffffffffffffffffffffff1614806103e45750600073ffffffffffffffffffffffffffffffffffffffff163373ffffffffffffffffffffffffffffffffffffffff16145b610423576040517f08c379a000000000000000000000000000000000000000000000000000000000815260040161041a90611716565b60405180910390fd5b600073ffffffffffffffffffffffffffffffffffffffff168173ffffffffffffffffffffffffffffffffffffffff161415610493576040517f08c379a000000000000000000000000000000000000000000000000000000000815260040161048a906116d6565b60405180910390fd5b6000808273ffffffffffffffffffffffffffffffffffffffff1673ffffffffffffffffffffffffffffffffffffffff16815260200190815260200160002060009054906101000a900460ff161561051f576040517f08c379a000000000000000000000000000000000000000000000000000000000815260040161051690611796565b60405180910390fd5b60016000808373ffffffffffffffffffffffffffffffffffffffff1673ffffffffffffffffffffffffffffffffffffffff16815260200190815260200160002060006101000a81548160ff021916908315150217905550600073ffffffffffffffffffffffffffffffffffffffff16630f560cd76040518163ffffffff1660e01b815260040160206040518083038186803b1580156105bd57600080fd5b505afa1580156105d1573d6000803e3d6000fd5b505050506040513d601f19601f820116820180604052506105f591908101906111c7565b73ffffffffffffffffffffffffffffffffffffffff16635422224e826040518263ffffffff1660e01b815260040161062d919061167c565b600060405180830381600087803b15801561064757600080fd5b505af115801561065b573d6000803e3d6000fd5b505050508073ffffffffffffffffffffffffffffffffffffffff167fdc949ee4159e00c6f6c0277af4718b4329c1e113164f629e30029915196c530f60405160405180910390a250565b600160009054906101000a900460ff1681565b600081565b6106c6336101e0565b806106fd5750600073ffffffffffffffffffffffffffffffffffffffff163373ffffffffffffffffffffffffffffffffffffffff16145b61073c576040517f08c379a000000000000000000000000000000000000000000000000000000000815260040161073390611816565b60405180910390fd5b828290508585905014610784576040517f08c379a000000000000000000000000000000000000000000000000000000000815260040161077b906116f6565b60405180910390fd5b60008090506000600160009054906101000a900460ff169050806108fa578173ffffffffffffffffffffffffffffffffffffffff166313ede1a160016040518263ffffffff1660e01b81526004016107dc9190611856565b60206040518083038186803b1580156107f457600080fd5b505afa158015610808573d6000803e3d6000fd5b505050506040513d601f19601f8201168201806040525061082c91908101906111c7565b73ffffffffffffffffffffffffffffffffffffffff1663a829f16588886040518363ffffffff1660e01b8152600401610866929190611697565b60206040518083038186803b15801561087e57600080fd5b505afa158015610892573d6000803e3d6000fd5b505050506040513d601f19601f820116820180604052506108b691908101906112a2565b6108f5576040517f08c379a00000000000000000000000000000000000000000000000000000000081526004016108ec90611736565b60405180910390fd5b610a4e565b8173ffffffffffffffffffffffffffffffffffffffff166313ede1a160016040518263ffffffff1660e01b81526004016109349190611856565b60206040518083038186803b15801561094c57600080fd5b505afa158015610960573d6000803e3d6000fd5b505050506040513d601f19601f8201168201806040525061098491908101906111c7565b73ffffffffffffffffffffffffffffffffffffffff1663144c61fe88886040518363ffffffff1660e01b81526004016109be929190611697565b60206040518083038186803b1580156109d657600080fd5b505afa1580156109ea573d6000803e3d6000fd5b505050506040513d601f19601f82011682018060405250610a0e91908101906112a2565b610a4d576040517f08c379a0000000000000000000000000000000000000000000000000000000008152600401610a44906117f6565b60405180910390fd5b5b60008090505b87879050811015610b3857610b2b888883818110610a6e57fe5b9050602002016020610a83919081019061119e565b878784818110610a8f57fe5b9050602002810180356001602003833603038112610aac57600080fd5b8083019250508135905060208201915067ffffffffffffffff811115610ad157600080fd5b600181023603821315610ae357600080fd5b8080601f016020809104026020016040519081016040528093929190818152602001838380828437600081840152601f19601f8201169050808301925050505050505061101a565b8080600101915050610a54565b5060008273ffffffffffffffffffffffffffffffffffffffff16635f72f45060016040518263ffffffff1660e01b8152600401610b759190611856565b60206040518083038186803b158015610b8d57600080fd5b505afa158015610ba1573d6000803e3d6000fd5b505050506040513d601f19601f82011682018060405250610bc591908101906111c7565b9050600073ffffffffffffffffffffffffffffffffffffffff168173ffffffffffffffffffffffffffffffffffffffff1614158015610c02575081155b15610cc5578073ffffffffffffffffffffffffffffffffffffffff1663d957dd3c6040518163ffffffff1660e01b815260040160206040518083038186803b158015610c4d57600080fd5b505afa158015610c61573d6000803e3d6000fd5b505050506040513d601f19601f82011682018060405250610c8591908101906112a2565b610cc4576040517f08c379a0000000000000000000000000000000000000000000000000000000008152600401610cbb906117d6565b60405180910390fd5b5b3373ffffffffffffffffffffffffffffffffffffffff168473ffffffffffffffffffffffffffffffffffffffff167f88c16fce368c171f39a2eb45acade4f8e2316d6c47b08e53f941ca3f90bc6ef234604051610d229190611856565b60405180910390a35050505050505050565b3073ffffffffffffffffffffffffffffffffffffffff163373ffffffffffffffffffffffffffffffffffffffff1614610da2576040517f08c379a0000000000000000000000000000000000000000000000000000000008152600401610d99906117b6565b60405180910390fd5b600073ffffffffffffffffffffffffffffffffffffffff168173ffffffffffffffffffffffffffffffffffffffff161415610e12576040517f08c379a0000000000000000000000000000000000000000000000000000000008152600401610e09906116d6565b60405180910390fd5b6000808273ffffffffffffffffffffffffffffffffffffffff1673ffffffffffffffffffffffffffffffffffffffff16815260200190815260200160002060009054906101000a900460ff16610e9d576040517f08c379a0000000000000000000000000000000000000000000000000000000008152600401610e9490611776565b60405180910390fd5b6000808273ffffffffffffffffffffffffffffffffffffffff1673ffffffffffffffffffffffffffffffffffffffff16815260200190815260200160002060006101000a81549060ff0219169055600073ffffffffffffffffffffffffffffffffffffffff16630f560cd76040518163ffffffff1660e01b815260040160206040518083038186803b158015610f3257600080fd5b505afa158015610f46573d6000803e3d6000fd5b505050506040513d601f19601f82011682018060405250610f6a91908101906111c7565b73ffffffffffffffffffffffffffffffffffffffff16637f3fd918826040518263ffffffff1660e01b8152600401610fa2919061167c565b600060405180830381600087803b158015610fbc57600080fd5b505af1158015610fd0573d6000803e3d6000fd5b505050508073ffffffffffffffffffffffffffffffffffffffff167f388f3d05458eb2a997e29ad87ebff76b4482e8c12f760c04a84243c9907af6cc60405160405180910390a250565b600073ffffffffffffffffffffffffffffffffffffffff168273ffffffffffffffffffffffffffffffffffffffff16141561108a576040517f08c379a000000000000000000000000000000000000000000000000000000000815260040161108190611756565b60405180910390fd5b600080825160208401855af48015600181146110a5576110b0565b3d806000803e806000fd5b50505050565b6000813590506110c581611909565b92915050565b6000815190506110da81611909565b92915050565b60008083601f8401126110f257600080fd5b8235905067ffffffffffffffff81111561110b57600080fd5b60208301915083602082028301111561112357600080fd5b9250929050565b60008083601f84011261113c57600080fd5b8235905067ffffffffffffffff81111561115557600080fd5b60208301915083602082028301111561116d57600080fd5b9250929050565b60008135905061118381611920565b92915050565b60008151905061119881611920565b92915050565b6000602082840312156111b057600080fd5b60006111be848285016110b6565b91505092915050565b6000602082840312156111d957600080fd5b60006111e7848285016110cb565b91505092915050565b60008060008060006060868803121561120857600080fd5b600086013567ffffffffffffffff81111561122257600080fd5b61122e888289016110e0565b9550955050602086013567ffffffffffffffff81111561124d57600080fd5b6112598882890161112a565b9350935050604061126c888289016110b6565b9150509295509295909350565b60006020828403121561128b57600080fd5b600061129984828501611174565b91505092915050565b6000602082840312156112b457600080fd5b60006112c284828501611189565b91505092915050565b60006112d783836112e3565b60208301905092915050565b6112ec816118c1565b82525050565b6112fb816118c1565b82525050565b600061130d8385611888565b935061131882611871565b8060005b858110156113515761132e82846118aa565b61133888826112cb565b97506113438361187b565b92505060018101905061131c565b5085925050509392505050565b611367816118d3565b82525050565b600061137a600983611899565b91507f6e6f742d76616c696400000000000000000000000000000000000000000000006000830152602082019050919050565b60006113ba601483611899565b91507f61727261792d6c656e6774682d696e76616c69640000000000000000000000006000830152602082019050919050565b60006113fa600e83611899565b91507f6e6f742d73656c662d696e6465780000000000000000000000000000000000006000830152602082019050919050565b600061143a600d83611899565b91507f6e6f742d636f6e6e6563746f72000000000000000000000000000000000000006000830152602082019050919050565b600061147a600e83611899565b91507f7461726765742d696e76616c69640000000000000000000000000000000000006000830152602082019050919050565b60006114ba601083611899565b91507f616c72656164792d64697361626c6564000000000000000000000000000000006000830152602082019050919050565b60006114fa600f83611899565b91507f616c72656164792d656e61626c656400000000000000000000000000000000006000830152602082019050919050565b600061153a600883611899565b91507f6e6f742d73656c660000000000000000000000000000000000000000000000006000830152602082019050919050565b600061157a600683611899565b91507f6e6f742d6f6b00000000000000000000000000000000000000000000000000006000830152602082019050919050565b60006115ba601483611899565b91507f6e6f742d7374617469632d636f6e6e6563746f720000000000000000000000006000830152602082019050919050565b60006115fa601183611899565b91507f7065726d697373696f6e2d64656e6965640000000000000000000000000000006000830152602082019050919050565b600061163a600d83611899565b91507f736869656c6420697320736574000000000000000000000000000000000000006000830152602082019050919050565b611676816118ff565b82525050565b600060208201905061169160008301846112f2565b92915050565b600060208201905081810360008301526116b2818486611301565b90509392505050565b60006020820190506116d0600083018461135e565b92915050565b600060208201905081810360008301526116ef8161136d565b9050919050565b6000602082019050818103600083015261170f816113ad565b9050919050565b6000602082019050818103600083015261172f816113ed565b9050919050565b6000602082019050818103600083015261174f8161142d565b9050919050565b6000602082019050818103600083015261176f8161146d565b9050919050565b6000602082019050818103600083015261178f816114ad565b9050919050565b600060208201905081810360008301526117af816114ed565b9050919050565b600060208201905081810360008301526117cf8161152d565b9050919050565b600060208201905081810360008301526117ef8161156d565b9050919050565b6000602082019050818103600083015261180f816115ad565b9050919050565b6000602082019050818103600083015261182f816115ed565b9050919050565b6000602082019050818103600083015261184f8161162d565b9050919050565b600060208201905061186b600083018461166d565b92915050565b6000819050919050565b6000602082019050919050565b600082825260208201905092915050565b600082825260208201905092915050565b60006118b960208401846110b6565b905092915050565b60006118cc826118df565b9050919050565b60008115159050919050565b600073ffffffffffffffffffffffffffffffffffffffff82169050919050565b6000819050919050565b611912816118c1565b811461191d57600080fd5b50565b611929816118d3565b811461193457600080fd5b5056fea2646970667358221220aeb1c1721ce2dd1541f72d2a7f8ed4667bfc6c30228cb451d6822f7e396d6a6464736f6c63430006020033",
  "source": "pragma solidity ^0.6.0;\npragma experimental ABIEncoderV2;\n\n/**\n * @title InstaAccount.\n * @dev DeFi Smart Account Wallet.\n */\n\ninterface IndexInterface {\n    function connectors(uint version) external view returns (address);\n    function check(uint version) external view returns (address);\n    function list() external view returns (address);\n}\n\ninterface ConnectorsInterface {\n    function isConnector(address[] calldata logicAddr) external view returns (bool);\n    function isStaticConnector(address[] calldata logicAddr) external view returns (bool);\n}\n\ninterface CheckInterface {\n    function isOk() external view returns (bool);\n}\n\ninterface ListInterface {\n    function addAuth(address user) external;\n    function removeAuth(address user) external;\n}\n\n\ncontract Record {\n\n    event LogEnable(address indexed user);\n    event LogDisable(address indexed user);\n    event LogSwitchShield(bool _shield);\n\n    // InstaIndex Address.\n    address public constant instaIndex = 0x0000000000000000000000000000000000000000;\n    // The Account Module Version.\n    uint public constant version = 1;\n    // Auth Module(Address of Auth => bool).\n    mapping (address => bool) private auth;\n    // Is shield true/false.\n    bool public shield;\n\n    /**\n     * @dev Check for Auth if enabled.\n     * @param user address/user/owner.\n     */\n    function isAuth(address user) public view returns (bool) {\n        return auth[user];\n    }\n\n    /**\n     * @dev Change Shield State.\n    */\n    function switchShield(bool _shield) external {\n        require(auth[msg.sender], \"not-self\");\n        require(shield != _shield, \"shield is set\");\n        shield = _shield;\n        emit LogSwitchShield(shield);\n    }\n\n    /**\n     * @dev Enable New User.\n     * @param user Owner of the Smart Account.\n    */\n    function enable(address user) public {\n        require(msg.sender == address(this) || msg.sender == instaIndex, \"not-self-index\");\n        require(user != address(0), \"not-valid\");\n        require(!auth[user], \"already-enabled\");\n        auth[user] = true;\n        ListInterface(IndexInterface(instaIndex).list()).addAuth(user);\n        emit LogEnable(user);\n    }\n\n    /**\n     * @dev Disable User.\n     * @param user Owner of the Smart Account.\n    */\n    function disable(address user) public {\n        require(msg.sender == address(this), \"not-self\");\n        require(user != address(0), \"not-valid\");\n        require(auth[user], \"already-disabled\");\n        delete auth[user];\n        ListInterface(IndexInterface(instaIndex).list()).removeAuth(user);\n        emit LogDisable(user);\n    }\n\n}\n\ncontract InstaAccount is Record {\n\n    event LogCast(address indexed origin, address indexed sender, uint value);\n\n    receive() external payable {}\n\n     /**\n     * @dev Delegate the calls to Connector And this function is ran by cast().\n     * @param _target Target to of Connector.\n     * @param _data CallData of function in Connector.\n    */\n    function spell(address _target, bytes memory _data) internal {\n        require(_target != address(0), \"target-invalid\");\n        assembly {\n            let succeeded := delegatecall(gas(), _target, add(_data, 0x20), mload(_data), 0, 0)\n\n            switch iszero(succeeded)\n                case 1 {\n                    // throw if delegatecall failed\n                    let size := returndatasize()\n                    returndatacopy(0x00, 0x00, size)\n                    revert(0x00, size)\n                }\n        }\n    }\n\n    /**\n     * @dev This is the main function, Where all the different functions are called\n     * from Smart Account.\n     * @param _targets Array of Target(s) to of Connector.\n     * @param _datas Array of Calldata(S) of function.\n    */\n    function cast(\n        address[] calldata _targets,\n        bytes[] calldata _datas,\n        address _origin\n    )\n    external\n    payable\n    {\n        require(isAuth(msg.sender) || msg.sender == instaIndex, \"permission-denied\");\n        require(_targets.length == _datas.length , \"array-length-invalid\");\n        IndexInterface indexContract = IndexInterface(instaIndex);\n        bool isShield = shield;\n        if (!isShield) {\n            require(ConnectorsInterface(indexContract.connectors(version)).isConnector(_targets), \"not-connector\");\n        } else {\n            require(ConnectorsInterface(indexContract.connectors(version)).isStaticConnector(_targets), \"not-static-connector\");\n        }\n        for (uint i = 0; i < _targets.length; i++) {\n            spell(_targets[i], _datas[i]);\n        }\n        address _check = indexContract.check(version);\n        if (_check != address(0) && !isShield) require(CheckInterface(_check).isOk(), \"not-ok\");\n        emit LogCast(_origin, msg.sender, msg.value);\n    }\n\n}",
  "sourcePath": "/Users/mariejoseph/Documents/Gelato/StopLoss/instaDapp/dsa-contracts/contracts/account.sol",
  "compiler": {
    "name": "solc",
    "version": "0.6.2+commit.bacdbe57.Emscripten.clang"
  },
  "schemaVersion": "3.2.4",
  "updatedAt": "2020-09-17T17:51:57.720Z",
  "devdoc": {
    "methods": {
      "cast(address[],bytes[],address)": {
        "details": "This is the main function, Where all the different functions are called from Smart Account.",
        "params": {
          "_datas": "Array of Calldata(S) of function.",
          "_targets": "Array of Target(s) to of Connector."
        }
      },
      "disable(address)": {
        "details": "Disable User.",
        "params": {
          "user": "Owner of the Smart Account."
        }
      },
      "enable(address)": {
        "details": "Enable New User.",
        "params": {
          "user": "Owner of the Smart Account."
        }
      },
      "isAuth(address)": {
        "details": "Check for Auth if enabled.",
        "params": {
          "user": "address/user/owner."
        }
      },
      "switchShield(bool)": {
        "details": "Change Shield State."
      }
    }
  },
  "userdoc": {
    "methods": {}
  }
}