{
  "contractName": "InstaConnectors",
  "abi": [
    {
      "anonymous": false,
      "inputs": [
        {
          "indexed": true,
          "internalType": "address",
          "name": "addr",
          "type": "address"
        }
      ],
      "name": "LogAddController",
      "type": "event"
    },
    {
      "anonymous": false,
      "inputs": [
        {
          "indexed": true,
          "internalType": "address",
          "name": "connector",
          "type": "address"
        }
      ],
      "name": "LogDisable",
      "type": "event"
    },
    {
      "anonymous": false,
      "inputs": [
        {
          "indexed": true,
          "internalType": "address",
          "name": "connector",
          "type": "address"
        }
      ],
      "name": "LogEnable",
      "type": "event"
    },
    {
      "anonymous": false,
      "inputs": [
        {
          "indexed": true,
          "internalType": "address",
          "name": "connector",
          "type": "address"
        }
      ],
      "name": "LogEnableStatic",
      "type": "event"
    },
    {
      "anonymous": false,
      "inputs": [
        {
          "indexed": true,
          "internalType": "address",
          "name": "addr",
          "type": "address"
        }
      ],
      "name": "LogRemoveController",
      "type": "event"
    },
    {
      "inputs": [
        {
          "internalType": "address",
          "name": "",
          "type": "address"
        }
      ],
      "name": "chief",
      "outputs": [
        {
          "internalType": "bool",
          "name": "",
          "type": "bool"
        }
      ],
      "stateMutability": "view",
      "type": "function"
    },
    {
      "inputs": [
        {
          "internalType": "uint256",
          "name": "",
          "type": "uint256"
        }
      ],
      "name": "connectorArray",
      "outputs": [
        {
          "internalType": "address",
          "name": "",
          "type": "address"
        }
      ],
      "stateMutability": "view",
      "type": "function"
    },
    {
      "inputs": [],
      "name": "connectorCount",
      "outputs": [
        {
          "internalType": "uint256",
          "name": "",
          "type": "uint256"
        }
      ],
      "stateMutability": "view",
      "type": "function"
    },
    {
      "inputs": [
        {
          "internalType": "address",
          "name": "",
          "type": "address"
        }
      ],
      "name": "connectors",
      "outputs": [
        {
          "internalType": "bool",
          "name": "",
          "type": "bool"
        }
      ],
      "stateMutability": "view",
      "type": "function"
    },
    {
      "inputs": [
        {
          "internalType": "address",
          "name": "_userAddress",
          "type": "address"
        }
      ],
      "name": "disableChief",
      "outputs": [],
      "stateMutability": "nonpayable",
      "type": "function"
    },
    {
      "inputs": [
        {
          "internalType": "address",
          "name": "_userAddress",
          "type": "address"
        }
      ],
      "name": "enableChief",
      "outputs": [],
      "stateMutability": "nonpayable",
      "type": "function"
    },
    {
      "inputs": [],
      "name": "instaIndex",
      "outputs": [
        {
          "internalType": "address",
          "name": "",
          "type": "address"
        }
      ],
      "stateMutability": "view",
      "type": "function"
    },
    {
      "inputs": [
        {
          "internalType": "uint256",
          "name": "",
          "type": "uint256"
        }
      ],
      "name": "staticConnectorArray",
      "outputs": [
        {
          "internalType": "address",
          "name": "",
          "type": "address"
        }
      ],
      "stateMutability": "view",
      "type": "function"
    },
    {
      "inputs": [
        {
          "internalType": "address",
          "name": "",
          "type": "address"
        }
      ],
      "name": "staticConnectors",
      "outputs": [
        {
          "internalType": "bool",
          "name": "",
          "type": "bool"
        }
      ],
      "stateMutability": "view",
      "type": "function"
    },
    {
      "inputs": [
        {
          "internalType": "address",
          "name": "_connector",
          "type": "address"
        }
      ],
      "name": "enable",
      "outputs": [],
      "stateMutability": "nonpayable",
      "type": "function"
    },
    {
      "inputs": [
        {
          "internalType": "address",
          "name": "_connector",
          "type": "address"
        }
      ],
      "name": "disable",
      "outputs": [],
      "stateMutability": "nonpayable",
      "type": "function"
    },
    {
      "inputs": [
        {
          "internalType": "address",
          "name": "_connector",
          "type": "address"
        }
      ],
      "name": "enableStatic",
      "outputs": [],
      "stateMutability": "nonpayable",
      "type": "function"
    },
    {
      "inputs": [
        {
          "internalType": "address[]",
          "name": "_connectors",
          "type": "address[]"
        }
      ],
      "name": "isConnector",
      "outputs": [
        {
          "internalType": "bool",
          "name": "isOk",
          "type": "bool"
        }
      ],
      "stateMutability": "view",
      "type": "function"
    },
    {
      "inputs": [
        {
          "internalType": "address[]",
          "name": "_connectors",
          "type": "address[]"
        }
      ],
      "name": "isStaticConnector",
      "outputs": [
        {
          "internalType": "bool",
          "name": "isOk",
          "type": "bool"
        }
      ],
      "stateMutability": "view",
      "type": "function"
    },
    {
      "inputs": [],
      "name": "connectorLength",
      "outputs": [
        {
          "internalType": "uint256",
          "name": "",
          "type": "uint256"
        }
      ],
      "stateMutability": "view",
      "type": "function"
    },
    {
      "inputs": [],
      "name": "staticConnectorLength",
      "outputs": [
        {
          "internalType": "uint256",
          "name": "",
          "type": "uint256"
        }
      ],
      "stateMutability": "view",
      "type": "function"
    }
  ],
  "bytecode": "0x608060405234801561001057600080fd5b50611c08806100206000396000f3fe608060405234801561001057600080fd5b50600436106101005760003560e01c806378ba255811610097578063ae15e02c11610066578063ae15e02c146104fb578063cc712c231461053f578063e6c09edf1461055d578063f2e18049146105a157610100565b806378ba2558146103a6578063a41098bf146103c4578063a829f1651461040e578063ac3f83341461049f57610100565b80632e1fbdce116100d35780632e1fbdce146102a45780635bfa1b68146102c257806361f82780146103065780636b1056ae1461034a57610100565b80630867fa45146101055780630e53aae9146101735780630f70d4a7146101cf578063144c61fe14610213575b600080fd5b6101316004803603602081101561011b57600080fd5b810190808035906020019092919050505061060f565b604051808273ffffffffffffffffffffffffffffffffffffffff1673ffffffffffffffffffffffffffffffffffffffff16815260200191505060405180910390f35b6101b56004803603602081101561018957600080fd5b81019080803573ffffffffffffffffffffffffffffffffffffffff16906020019092919050505061064b565b604051808215151515815260200191505060405180910390f35b610211600480360360208110156101e557600080fd5b81019080803573ffffffffffffffffffffffffffffffffffffffff16906020019092919050505061066b565b005b61028a6004803603602081101561022957600080fd5b810190808035906020019064010000000081111561024657600080fd5b82018360208201111561025857600080fd5b8035906020019184602083028401116401000000008311171561027a57600080fd5b909192939192939050505061087d565b604051808215151515815260200191505060405180910390f35b6102ac61092a565b6040518082815260200191505060405180910390f35b610304600480360360208110156102d857600080fd5b81019080803573ffffffffffffffffffffffffffffffffffffffff169060200190929190505050610937565b005b6103486004803603602081101561031c57600080fd5b81019080803573ffffffffffffffffffffffffffffffffffffffff169060200190929190505050610c24565b005b61038c6004803603602081101561036057600080fd5b81019080803573ffffffffffffffffffffffffffffffffffffffff169060200190929190505050610e2d565b604051808215151515815260200191505060405180910390f35b6103ae610e4d565b6040518082815260200191505060405180910390f35b6103cc610e53565b604051808273ffffffffffffffffffffffffffffffffffffffff1673ffffffffffffffffffffffffffffffffffffffff16815260200191505060405180910390f35b6104856004803603602081101561042457600080fd5b810190808035906020019064010000000081111561044157600080fd5b82018360208201111561045357600080fd5b8035906020019184602083028401116401000000008311171561047557600080fd5b9091929391929390505050610e58565b604051808215151515815260200191505060405180910390f35b6104e1600480360360208110156104b557600080fd5b81019080803573ffffffffffffffffffffffffffffffffffffffff169060200190929190505050610f05565b604051808215151515815260200191505060405180910390f35b61053d6004803603602081101561051157600080fd5b81019080803573ffffffffffffffffffffffffffffffffffffffff169060200190929190505050610f25565b005b610547611201565b6040518082815260200191505060405180910390f35b61059f6004803603602081101561057357600080fd5b81019080803573ffffffffffffffffffffffffffffffffffffffff16906020019092919050505061120e565b005b6105cd600480360360208110156105b757600080fd5b81019080803590602001909291905050506114ea565b604051808273ffffffffffffffffffffffffffffffffffffffff1673ffffffffffffffffffffffffffffffffffffffff16815260200191505060405180910390f35b6003818154811061061c57fe5b906000526020600020016000915054906101000a900473ffffffffffffffffffffffffffffffffffffffff1681565b60016020528060005260406000206000915054906101000a900460ff1681565b6000803373ffffffffffffffffffffffffffffffffffffffff1673ffffffffffffffffffffffffffffffffffffffff16815260200190815260200160002060009054906101000a900460ff168061076e5750600073ffffffffffffffffffffffffffffffffffffffff1663ee97f7f36040518163ffffffff1660e01b815260040160206040518083038186803b15801561070457600080fd5b505afa158015610718573d6000803e3d6000fd5b505050506040513d602081101561072e57600080fd5b810190808051906020019092919050505073ffffffffffffffffffffffffffffffffffffffff163373ffffffffffffffffffffffffffffffffffffffff16145b6107e0576040517f08c379a000000000000000000000000000000000000000000000000000000000815260040180806020018281038252600c8152602001807f6e6f742d616e2d6368696566000000000000000000000000000000000000000081525060200191505060405180910390fd5b60016000808373ffffffffffffffffffffffffffffffffffffffff1673ffffffffffffffffffffffffffffffffffffffff16815260200190815260200160002060006101000a81548160ff0219169083151502179055508073ffffffffffffffffffffffffffffffffffffffff167f69483bb868dc7929bac7b0735c53b685aeb5438761d41d189fbcdde8011b279760405160405180910390a250565b60006001905060008090505b8383905081101561092357600260008585848181106108a457fe5b9050602002013573ffffffffffffffffffffffffffffffffffffffff1673ffffffffffffffffffffffffffffffffffffffff1673ffffffffffffffffffffffffffffffffffffffff16815260200190815260200160002060009054906101000a900460ff166109165760009150610923565b8080600101915050610889565b5092915050565b6000600580549050905090565b6000803373ffffffffffffffffffffffffffffffffffffffff1673ffffffffffffffffffffffffffffffffffffffff16815260200190815260200160002060009054906101000a900460ff1680610a3a5750600073ffffffffffffffffffffffffffffffffffffffff1663ee97f7f36040518163ffffffff1660e01b815260040160206040518083038186803b1580156109d057600080fd5b505afa1580156109e4573d6000803e3d6000fd5b505050506040513d60208110156109fa57600080fd5b810190808051906020019092919050505073ffffffffffffffffffffffffffffffffffffffff163373ffffffffffffffffffffffffffffffffffffffff16145b610aac576040517f08c379a000000000000000000000000000000000000000000000000000000000815260040180806020018281038252600c8152602001807f6e6f742d616e2d6368696566000000000000000000000000000000000000000081525060200191505060405180910390fd5b600160008273ffffffffffffffffffffffffffffffffffffffff1673ffffffffffffffffffffffffffffffffffffffff16815260200190815260200160002060009054906101000a900460ff1615610b6c576040517f08c379a000000000000000000000000000000000000000000000000000000000815260040180806020018281038252600f8152602001807f616c72656164792d656e61626c6564000000000000000000000000000000000081525060200191505060405180910390fd5b610b7581611526565b60018060008373ffffffffffffffffffffffffffffffffffffffff1673ffffffffffffffffffffffffffffffffffffffff16815260200190815260200160002060006101000a81548160ff0219169083151502179055506004600081548092919060010191905055508073ffffffffffffffffffffffffffffffffffffffff167fdc949ee4159e00c6f6c0277af4718b4329c1e113164f629e30029915196c530f60405160405180910390a250565b6000803373ffffffffffffffffffffffffffffffffffffffff1673ffffffffffffffffffffffffffffffffffffffff16815260200190815260200160002060009054906101000a900460ff1680610d275750600073ffffffffffffffffffffffffffffffffffffffff1663ee97f7f36040518163ffffffff1660e01b815260040160206040518083038186803b158015610cbd57600080fd5b505afa158015610cd1573d6000803e3d6000fd5b505050506040513d6020811015610ce757600080fd5b810190808051906020019092919050505073ffffffffffffffffffffffffffffffffffffffff163373ffffffffffffffffffffffffffffffffffffffff16145b610d99576040517f08c379a000000000000000000000000000000000000000000000000000000000815260040180806020018281038252600c8152602001807f6e6f742d616e2d6368696566000000000000000000000000000000000000000081525060200191505060405180910390fd5b6000808273ffffffffffffffffffffffffffffffffffffffff1673ffffffffffffffffffffffffffffffffffffffff16815260200190815260200160002060006101000a81549060ff02191690558073ffffffffffffffffffffffffffffffffffffffff167fb28f1bf5635ec9671f4b88cd6b50e297659dbdfbbe1dc45069e9844ec07a21a160405160405180910390a250565b60006020528060005260406000206000915054906101000a900460ff1681565b60045481565b600081565b60006001905060008090505b83839050811015610efe5760016000858584818110610e7f57fe5b9050602002013573ffffffffffffffffffffffffffffffffffffffff1673ffffffffffffffffffffffffffffffffffffffff1673ffffffffffffffffffffffffffffffffffffffff16815260200190815260200160002060009054906101000a900460ff16610ef15760009150610efe565b8080600101915050610e64565b5092915050565b60026020528060005260406000206000915054906101000a900460ff1681565b6000803373ffffffffffffffffffffffffffffffffffffffff1673ffffffffffffffffffffffffffffffffffffffff16815260200190815260200160002060009054906101000a900460ff16806110285750600073ffffffffffffffffffffffffffffffffffffffff1663ee97f7f36040518163ffffffff1660e01b815260040160206040518083038186803b158015610fbe57600080fd5b505afa158015610fd2573d6000803e3d6000fd5b505050506040513d6020811015610fe857600080fd5b810190808051906020019092919050505073ffffffffffffffffffffffffffffffffffffffff163373ffffffffffffffffffffffffffffffffffffffff16145b61109a576040517f08c379a000000000000000000000000000000000000000000000000000000000815260040180806020018281038252600c8152602001807f6e6f742d616e2d6368696566000000000000000000000000000000000000000081525060200191505060405180910390fd5b600260008273ffffffffffffffffffffffffffffffffffffffff1673ffffffffffffffffffffffffffffffffffffffff16815260200190815260200160002060009054906101000a900460ff161561115a576040517f08c379a000000000000000000000000000000000000000000000000000000000815260040180806020018281038252600f8152602001807f616c72656164792d656e61626c6564000000000000000000000000000000000081525060200191505060405180910390fd5b6111638161187c565b6001600260008373ffffffffffffffffffffffffffffffffffffffff1673ffffffffffffffffffffffffffffffffffffffff16815260200190815260200160002060006101000a81548160ff0219169083151502179055508073ffffffffffffffffffffffffffffffffffffffff167fd1f70568663bd9b4f99ababac3441804970c24aacb20e350d5e0d7b14c5cdb2460405160405180910390a250565b6000600380549050905090565b6000803373ffffffffffffffffffffffffffffffffffffffff1673ffffffffffffffffffffffffffffffffffffffff16815260200190815260200160002060009054906101000a900460ff16806113115750600073ffffffffffffffffffffffffffffffffffffffff1663ee97f7f36040518163ffffffff1660e01b815260040160206040518083038186803b1580156112a757600080fd5b505afa1580156112bb573d6000803e3d6000fd5b505050506040513d60208110156112d157600080fd5b810190808051906020019092919050505073ffffffffffffffffffffffffffffffffffffffff163373ffffffffffffffffffffffffffffffffffffffff16145b611383576040517f08c379a000000000000000000000000000000000000000000000000000000000815260040180806020018281038252600c8152602001807f6e6f742d616e2d6368696566000000000000000000000000000000000000000081525060200191505060405180910390fd5b600160008273ffffffffffffffffffffffffffffffffffffffff1673ffffffffffffffffffffffffffffffffffffffff16815260200190815260200160002060009054906101000a900460ff16611442576040517f08c379a00000000000000000000000000000000000000000000000000000000081526004018080602001828103825260108152602001807f616c72656164792d64697361626c65640000000000000000000000000000000081525060200191505060405180910390fd5b600160008273ffffffffffffffffffffffffffffffffffffffff1673ffffffffffffffffffffffffffffffffffffffff16815260200190815260200160002060006101000a81549060ff0219169055600460008154809291906001900391905055508073ffffffffffffffffffffffffffffffffffffffff167f388f3d05458eb2a997e29ad87ebff76b4482e8c12f760c04a84243c9907af6cc60405160405180910390a250565b600581815481106114f757fe5b906000526020600020016000915054906101000a900473ffffffffffffffffffffffffffffffffffffffff1681565b600073ffffffffffffffffffffffffffffffffffffffff168173ffffffffffffffffffffffffffffffffffffffff1614156115c9576040517f08c379a00000000000000000000000000000000000000000000000000000000081526004018080602001828103825260138152602001807f4e6f742d76616c69642d636f6e6e6563746f720000000000000000000000000081525060200191505060405180910390fd5b60008173ffffffffffffffffffffffffffffffffffffffff1663eb15f7816040518163ffffffff1660e01b8152600401604080518083038186803b15801561161057600080fd5b505afa158015611624573d6000803e3d6000fd5b505050506040513d604081101561163a57600080fd5b81019080805190602001909291908051906020019092919050505091505060016003805490500181146116d5576040517f08c379a00000000000000000000000000000000000000000000000000000000081526004018080602001828103825260188152602001807f436f6e6e6563746f7249442d646f65736e742d6d61746368000000000000000081525060200191505060405180910390fd5b8173ffffffffffffffffffffffffffffffffffffffff166306fdde036040518163ffffffff1660e01b815260040160006040518083038186803b15801561171b57600080fd5b505afa15801561172f573d6000803e3d6000fd5b505050506040513d6000823e3d601f19601f82011682018060405250602081101561175957600080fd5b810190808051604051939291908464010000000082111561177957600080fd5b8382019150602082018581111561178f57600080fd5b82518660018202830111640100000000821117156117ac57600080fd5b8083526020830192505050908051906020019080838360005b838110156117e05780820151818401526020810190506117c5565b50505050905090810190601f16801561180d5780820380516001836020036101000a031916815260200191505b50604052505050506003829080600181540180825580915050600190039060005260206000200160009091909190916101000a81548173ffffffffffffffffffffffffffffffffffffffff021916908373ffffffffffffffffffffffffffffffffffffffff1602179055505050565b600073ffffffffffffffffffffffffffffffffffffffff168173ffffffffffffffffffffffffffffffffffffffff16141561191f576040517f08c379a00000000000000000000000000000000000000000000000000000000081526004018080602001828103825260138152602001807f4e6f742d76616c69642d636f6e6e6563746f720000000000000000000000000081525060200191505060405180910390fd5b60008173ffffffffffffffffffffffffffffffffffffffff1663eb15f7816040518163ffffffff1660e01b8152600401604080518083038186803b15801561196657600080fd5b505afa15801561197a573d6000803e3d6000fd5b505050506040513d604081101561199057600080fd5b8101908080519060200190929190805190602001909291905050509150506001600580549050018114611a2b576040517f08c379a00000000000000000000000000000000000000000000000000000000081526004018080602001828103825260188152602001807f436f6e6e6563746f7249442d646f65736e742d6d61746368000000000000000081525060200191505060405180910390fd5b8173ffffffffffffffffffffffffffffffffffffffff166306fdde036040518163ffffffff1660e01b815260040160006040518083038186803b158015611a7157600080fd5b505afa158015611a85573d6000803e3d6000fd5b505050506040513d6000823e3d601f19601f820116820180604052506020811015611aaf57600080fd5b8101908080516040519392919084640100000000821115611acf57600080fd5b83820191506020820185811115611ae557600080fd5b8251866001820283011164010000000082111715611b0257600080fd5b8083526020830192505050908051906020019080838360005b83811015611b36578082015181840152602081019050611b1b565b50505050905090810190601f168015611b635780820380516001836020036101000a031916815260200191505b50604052505050506005829080600181540180825580915050600190039060005260206000200160009091909190916101000a81548173ffffffffffffffffffffffffffffffffffffffff021916908373ffffffffffffffffffffffffffffffffffffffff160217905550505056fea2646970667358221220032ebed9cf0c382d9aa49919cbd183509bbecba2ce9a2ded52aa358c29469f8264736f6c63430006020033",
  "source": "pragma solidity ^0.6.0;\n\n/**\n * @title InstaConnectors\n * @dev Registry for Connectors.\n */\n\n\ninterface IndexInterface {\n    function master() external view returns (address);\n}\n\ninterface ConnectorInterface {\n    function connectorID() external view returns(uint _type, uint _id);\n    function name() external view returns (string memory);\n}\n\n\ncontract DSMath {\n\n    function add(uint x, uint y) internal pure returns (uint z) {\n        require((z = x + y) >= x, \"ds-math-add-overflow\");\n    }\n\n    function sub(uint x, uint y) internal pure returns (uint z) {\n        require((z = x - y) <= x, \"ds-math-sub-underflow\");\n    }\n\n}\n\ncontract Controllers is DSMath {\n\n    event LogAddController(address indexed addr);\n    event LogRemoveController(address indexed addr);\n\n    // InstaIndex Address.\n    address public constant instaIndex = 0x0000000000000000000000000000000000000000;\n\n    // Enabled Chief(Address of Chief => bool).\n    mapping(address => bool) public chief;\n    // Enabled Connectors(Connector Address => bool).\n    mapping(address => bool) public connectors;\n    // Enabled Static Connectors(Connector Address => bool).\n    mapping(address => bool) public staticConnectors;\n\n    /**\n    * @dev Throws if the sender not is Master Address from InstaIndex\n    * or Enabled Chief.\n    */\n    modifier isChief {\n        require(chief[msg.sender] || msg.sender == IndexInterface(instaIndex).master(), \"not-an-chief\");\n        _;\n    }\n\n    /**\n     * @dev Enable a Chief.\n     * @param _userAddress Chief Address.\n    */\n    function enableChief(address _userAddress) external isChief {\n        chief[_userAddress] = true;\n        emit LogAddController(_userAddress);\n    }\n\n    /**\n     * @dev Disables a Chief.\n     * @param _userAddress Chief Address.\n    */\n    function disableChief(address _userAddress) external isChief {\n        delete chief[_userAddress];\n        emit LogRemoveController(_userAddress);\n    }\n\n}\n\n\ncontract Listings is Controllers {\n    // Connectors Array.\n    address[] public connectorArray;\n    // Count of Connector's Enabled.\n    uint public connectorCount;\n\n    /**\n     * @dev Add Connector to Connector's array.\n     * @param _connector Connector Address.\n    **/\n    function addToArr(address _connector) internal {\n        require(_connector != address(0), \"Not-valid-connector\");\n        (, uint _id) = ConnectorInterface(_connector).connectorID();\n        require(_id == (connectorArray.length+1),\"ConnectorID-doesnt-match\");\n        ConnectorInterface(_connector).name(); // Checking if connector has function name()\n        connectorArray.push(_connector);\n    }\n\n    // Static Connectors Array.\n    address[] public staticConnectorArray;\n\n    /**\n     * @dev Add Connector to Static Connector's array.\n     * @param _connector Static Connector Address.\n    **/\n    function addToArrStatic(address _connector) internal {\n        require(_connector != address(0), \"Not-valid-connector\");\n        (, uint _id) = ConnectorInterface(_connector).connectorID();\n        require(_id == (staticConnectorArray.length+1),\"ConnectorID-doesnt-match\");\n        ConnectorInterface(_connector).name(); // Checking if connector has function name()\n        staticConnectorArray.push(_connector);\n    }\n\n}\n\n\ncontract InstaConnectors is Listings {\n\n    event LogEnable(address indexed connector);\n    event LogDisable(address indexed connector);\n    event LogEnableStatic(address indexed connector);\n\n    /**\n     * @dev Enable Connector.\n     * @param _connector Connector Address.\n    */\n    function enable(address _connector) external isChief {\n        require(!connectors[_connector], \"already-enabled\");\n        addToArr(_connector);\n        connectors[_connector] = true;\n        connectorCount++;\n        emit LogEnable(_connector);\n    }\n    /**\n     * @dev Disable Connector.\n     * @param _connector Connector Address.\n    */\n    function disable(address _connector) external isChief {\n        require(connectors[_connector], \"already-disabled\");\n        delete connectors[_connector];\n        connectorCount--;\n        emit LogDisable(_connector);\n    }\n\n    /**\n     * @dev Enable Static Connector.\n     * @param _connector Static Connector Address.\n    */\n    function enableStatic(address _connector) external isChief {\n        require(!staticConnectors[_connector], \"already-enabled\");\n        addToArrStatic(_connector);\n        staticConnectors[_connector] = true;\n        emit LogEnableStatic(_connector);\n    }\n\n     /**\n     * @dev Check if Connector addresses are enabled.\n     * @param _connectors Array of Connector Addresses.\n    */\n    function isConnector(address[] calldata _connectors) external view returns (bool isOk) {\n        isOk = true;\n        for (uint i = 0; i < _connectors.length; i++) {\n            if (!connectors[_connectors[i]]) {\n                isOk = false;\n                break;\n            }\n        }\n    }\n\n    /**\n     * @dev Check if Connector addresses are static enabled.\n     * @param _connectors Array of Connector Addresses.\n    */\n    function isStaticConnector(address[] calldata _connectors) external view returns (bool isOk) {\n        isOk = true;\n        for (uint i = 0; i < _connectors.length; i++) {\n            if (!staticConnectors[_connectors[i]]) {\n                isOk = false;\n                break;\n            }\n        }\n    }\n\n    /**\n     * @dev get Connector's Array length.\n    */\n    function connectorLength() external view returns (uint) {\n        return connectorArray.length;\n    }\n\n    /**\n     * @dev get Static Connector's Array length.\n    */\n    function staticConnectorLength() external view returns (uint) {\n        return staticConnectorArray.length;\n    }\n}",
  "sourcePath": "/Users/mariejoseph/Documents/Gelato/StopLoss/instaDapp/dsa-contracts/contracts/registry/connectors.sol",
  "compiler": {
    "name": "solc",
    "version": "0.6.2+commit.bacdbe57.Emscripten.clang"
  },
  "schemaVersion": "3.2.4",
  "updatedAt": "2020-09-17T17:51:57.831Z",
  "devdoc": {
    "methods": {
      "connectorLength()": {
        "details": "get Connector's Array length."
      },
      "disable(address)": {
        "details": "Disable Connector.",
        "params": {
          "_connector": "Connector Address."
        }
      },
      "disableChief(address)": {
        "details": "Disables a Chief.",
        "params": {
          "_userAddress": "Chief Address."
        }
      },
      "enable(address)": {
        "details": "Enable Connector.",
        "params": {
          "_connector": "Connector Address."
        }
      },
      "enableChief(address)": {
        "details": "Enable a Chief.",
        "params": {
          "_userAddress": "Chief Address."
        }
      },
      "enableStatic(address)": {
        "details": "Enable Static Connector.",
        "params": {
          "_connector": "Static Connector Address."
        }
      },
      "isConnector(address[])": {
        "details": "Check if Connector addresses are enabled.",
        "params": {
          "_connectors": "Array of Connector Addresses."
        }
      },
      "isStaticConnector(address[])": {
        "details": "Check if Connector addresses are static enabled.",
        "params": {
          "_connectors": "Array of Connector Addresses."
        }
      },
      "staticConnectorLength()": {
        "details": "get Static Connector's Array length."
      }
    }
  },
  "userdoc": {
    "methods": {}
  }
}