{
  "contractName": "InstaIndex",
  "abi": [
    {
      "anonymous": false,
      "inputs": [
        {
          "indexed": false,
          "internalType": "address",
          "name": "sender",
          "type": "address"
        },
        {
          "indexed": true,
          "internalType": "address",
          "name": "owner",
          "type": "address"
        },
        {
          "indexed": true,
          "internalType": "address",
          "name": "account",
          "type": "address"
        },
        {
          "indexed": true,
          "internalType": "address",
          "name": "origin",
          "type": "address"
        }
      ],
      "name": "LogAccountCreated",
      "type": "event"
    },
    {
      "anonymous": false,
      "inputs": [
        {
          "indexed": true,
          "internalType": "address",
          "name": "_newAccount",
          "type": "address"
        },
        {
          "indexed": true,
          "internalType": "address",
          "name": "_connectors",
          "type": "address"
        },
        {
          "indexed": true,
          "internalType": "address",
          "name": "_check",
          "type": "address"
        }
      ],
      "name": "LogNewAccount",
      "type": "event"
    },
    {
      "anonymous": false,
      "inputs": [
        {
          "indexed": true,
          "internalType": "uint256",
          "name": "accountVersion",
          "type": "uint256"
        },
        {
          "indexed": true,
          "internalType": "address",
          "name": "check",
          "type": "address"
        }
      ],
      "name": "LogNewCheck",
      "type": "event"
    },
    {
      "anonymous": false,
      "inputs": [
        {
          "indexed": true,
          "internalType": "address",
          "name": "master",
          "type": "address"
        }
      ],
      "name": "LogNewMaster",
      "type": "event"
    },
    {
      "anonymous": false,
      "inputs": [
        {
          "indexed": true,
          "internalType": "address",
          "name": "master",
          "type": "address"
        }
      ],
      "name": "LogUpdateMaster",
      "type": "event"
    },
    {
      "inputs": [
        {
          "internalType": "uint256",
          "name": "",
          "type": "uint256"
        }
      ],
      "name": "account",
      "outputs": [
        {
          "internalType": "address",
          "name": "",
          "type": "address"
        }
      ],
      "stateMutability": "view",
      "type": "function"
    },
    {
      "inputs": [
        {
          "internalType": "address",
          "name": "_newAccount",
          "type": "address"
        },
        {
          "internalType": "address",
          "name": "_connectors",
          "type": "address"
        },
        {
          "internalType": "address",
          "name": "_check",
          "type": "address"
        }
      ],
      "name": "addNewAccount",
      "outputs": [],
      "stateMutability": "nonpayable",
      "type": "function"
    },
    {
      "inputs": [
        {
          "internalType": "uint256",
          "name": "accountVersion",
          "type": "uint256"
        },
        {
          "internalType": "address",
          "name": "_newCheck",
          "type": "address"
        }
      ],
      "name": "changeCheck",
      "outputs": [],
      "stateMutability": "nonpayable",
      "type": "function"
    },
    {
      "inputs": [
        {
          "internalType": "address",
          "name": "_newMaster",
          "type": "address"
        }
      ],
      "name": "changeMaster",
      "outputs": [],
      "stateMutability": "nonpayable",
      "type": "function"
    },
    {
      "inputs": [
        {
          "internalType": "uint256",
          "name": "",
          "type": "uint256"
        }
      ],
      "name": "check",
      "outputs": [
        {
          "internalType": "address",
          "name": "",
          "type": "address"
        }
      ],
      "stateMutability": "view",
      "type": "function"
    },
    {
      "inputs": [
        {
          "internalType": "uint256",
          "name": "",
          "type": "uint256"
        }
      ],
      "name": "connectors",
      "outputs": [
        {
          "internalType": "address",
          "name": "",
          "type": "address"
        }
      ],
      "stateMutability": "view",
      "type": "function"
    },
    {
      "inputs": [
        {
          "internalType": "uint256",
          "name": "version",
          "type": "uint256"
        },
        {
          "internalType": "address",
          "name": "query",
          "type": "address"
        }
      ],
      "name": "isClone",
      "outputs": [
        {
          "internalType": "bool",
          "name": "result",
          "type": "bool"
        }
      ],
      "stateMutability": "view",
      "type": "function"
    },
    {
      "inputs": [],
      "name": "list",
      "outputs": [
        {
          "internalType": "address",
          "name": "",
          "type": "address"
        }
      ],
      "stateMutability": "view",
      "type": "function"
    },
    {
      "inputs": [],
      "name": "master",
      "outputs": [
        {
          "internalType": "address",
          "name": "",
          "type": "address"
        }
      ],
      "stateMutability": "view",
      "type": "function"
    },
    {
      "inputs": [],
      "name": "updateMaster",
      "outputs": [],
      "stateMutability": "nonpayable",
      "type": "function"
    },
    {
      "inputs": [],
      "name": "versionCount",
      "outputs": [
        {
          "internalType": "uint256",
          "name": "",
          "type": "uint256"
        }
      ],
      "stateMutability": "view",
      "type": "function"
    },
    {
      "inputs": [
        {
          "internalType": "address",
          "name": "_owner",
          "type": "address"
        },
        {
          "internalType": "uint256",
          "name": "accountVersion",
          "type": "uint256"
        },
        {
          "internalType": "address[]",
          "name": "_targets",
          "type": "address[]"
        },
        {
          "internalType": "bytes[]",
          "name": "_datas",
          "type": "bytes[]"
        },
        {
          "internalType": "address",
          "name": "_origin",
          "type": "address"
        }
      ],
      "name": "buildWithCast",
      "outputs": [
        {
          "internalType": "address",
          "name": "_account",
          "type": "address"
        }
      ],
      "stateMutability": "payable",
      "type": "function"
    },
    {
      "inputs": [
        {
          "internalType": "address",
          "name": "_owner",
          "type": "address"
        },
        {
          "internalType": "uint256",
          "name": "accountVersion",
          "type": "uint256"
        },
        {
          "internalType": "address",
          "name": "_origin",
          "type": "address"
        }
      ],
      "name": "build",
      "outputs": [
        {
          "internalType": "address",
          "name": "_account",
          "type": "address"
        }
      ],
      "stateMutability": "nonpayable",
      "type": "function"
    },
    {
      "inputs": [
        {
          "internalType": "address",
          "name": "_master",
          "type": "address"
        },
        {
          "internalType": "address",
          "name": "_list",
          "type": "address"
        },
        {
          "internalType": "address",
          "name": "_account",
          "type": "address"
        },
        {
          "internalType": "address",
          "name": "_connectors",
          "type": "address"
        }
      ],
      "name": "setBasics",
      "outputs": [],
      "stateMutability": "nonpayable",
      "type": "function"
    }
  ],
  "bytecode": "0x608060405234801561001057600080fd5b5061214f806100206000396000f3fe6080604052600436106100dd5760003560e01c80638aad29e11161007f578063cf1a0ddc11610059578063cf1a0ddc146102eb578063ee97f7f314610302578063f4ff78bf1461032d578063fdc3870c14610356576100dd565b80638aad29e11461025a578063a4bb8e7d14610285578063bb7e70ef146102ae576100dd565b8063443ff7b6116100bb578063443ff7b6146101875780634f5b2561146101b05780635f72f450146101e0578063743681891461021d576100dd565b80630f560cd7146100e257806313ede1a11461010d5780632dd7c6581461014a575b600080fd5b3480156100ee57600080fd5b506100f761037f565b6040516101049190611d42565b60405180910390f35b34801561011957600080fd5b50610134600480360361012f919081019061193b565b6103a5565b6040516101419190611d42565b60405180910390f35b34801561015657600080fd5b50610171600480360361016c919081019061193b565b6103d8565b60405161017e9190611d42565b60405180910390f35b34801561019357600080fd5b506101ae60048036036101a9919081019061198d565b61040b565b005b6101ca60048036036101c5919081019061184a565b6105d7565b6040516101d79190611d42565b60405180910390f35b3480156101ec57600080fd5b506102076004803603610202919081019061193b565b610698565b6040516102149190611d42565b60405180910390f35b34801561022957600080fd5b50610244600480360361023f919081019061198d565b6106cb565b6040516102519190611dc1565b60405180910390f35b34801561026657600080fd5b5061026f610780565b60405161027c9190611edc565b60405180910390f35b34801561029157600080fd5b506102ac60048036036102a79190810190611798565b610786565b005b3480156102ba57600080fd5b506102d560048036036102d091908101906117fb565b610a99565b6040516102e29190611d42565b60405180910390f35b3480156102f757600080fd5b50610300610c72565b005b34801561030e57600080fd5b50610317610e9c565b6040516103249190611d42565b60405180910390f35b34801561033957600080fd5b50610354600480360361034f9190810190611720565b610ec2565b005b34801561036257600080fd5b5061037d60048036036103789190810190611749565b611169565b005b600260009054906101000a900473ffffffffffffffffffffffffffffffffffffffff1681565b60036020528060005260406000206000915054906101000a900473ffffffffffffffffffffffffffffffffffffffff1681565b60056020528060005260406000206000915054906101000a900473ffffffffffffffffffffffffffffffffffffffff1681565b600160009054906101000a900473ffffffffffffffffffffffffffffffffffffffff1673ffffffffffffffffffffffffffffffffffffffff163373ffffffffffffffffffffffffffffffffffffffff161461049b576040517f08c379a000000000000000000000000000000000000000000000000000000000815260040161049290611e9c565b60405180910390fd5b6004600083815260200190815260200160002060009054906101000a900473ffffffffffffffffffffffffffffffffffffffff1673ffffffffffffffffffffffffffffffffffffffff168173ffffffffffffffffffffffffffffffffffffffff16141561053d576040517f08c379a000000000000000000000000000000000000000000000000000000000815260040161053490611e5c565b60405180910390fd5b806004600084815260200190815260200160002060006101000a81548173ffffffffffffffffffffffffffffffffffffffff021916908373ffffffffffffffffffffffffffffffffffffffff1602179055508073ffffffffffffffffffffffffffffffffffffffff16827f1d96dda971e33be0980128bbce3f93dfe4859657397e00d2db4d288d2c2bc78860405160405180910390a35050565b60006105e4888884610a99565b9050600086869050111561068d578073ffffffffffffffffffffffffffffffffffffffff1663e0e90acf3488888888886040518763ffffffff1660e01b8152600401610634959493929190611d78565b6000604051808303818588803b15801561064d57600080fd5b505af1158015610661573d6000803e3d6000fd5b50505050506040513d6000823e3d601f19601f8201168201806040525061068b91908101906118fa565b505b979650505050505050565b60046020528060005260406000206000915054906101000a900473ffffffffffffffffffffffffffffffffffffffff1681565b6000806005600085815260200190815260200160002060009054906101000a900473ffffffffffffffffffffffffffffffffffffffff1660601b90506040517f363d3d373d3d3d363d7300000000000000000000000000000000000000000000815281600a8201527f5af43d82803e903d91602b57fd5bf30000000000000000000000000000000000601e82015260408101602d600082873c600d810151600d83015114815183511416935050505092915050565b60065481565b600073ffffffffffffffffffffffffffffffffffffffff16600160009054906101000a900473ffffffffffffffffffffffffffffffffffffffff1673ffffffffffffffffffffffffffffffffffffffff161480156108325750600073ffffffffffffffffffffffffffffffffffffffff16600260009054906101000a900473ffffffffffffffffffffffffffffffffffffffff1673ffffffffffffffffffffffffffffffffffffffff16145b801561089e5750600073ffffffffffffffffffffffffffffffffffffffff16600560006001815260200190815260200160002060009054906101000a900473ffffffffffffffffffffffffffffffffffffffff1673ffffffffffffffffffffffffffffffffffffffff16145b801561090a5750600073ffffffffffffffffffffffffffffffffffffffff16600360006001815260200190815260200160002060009054906101000a900473ffffffffffffffffffffffffffffffffffffffff1673ffffffffffffffffffffffffffffffffffffffff16145b801561091857506000600654145b610957576040517f08c379a000000000000000000000000000000000000000000000000000000000815260040161094e90611e1c565b60405180910390fd5b83600160006101000a81548173ffffffffffffffffffffffffffffffffffffffff021916908373ffffffffffffffffffffffffffffffffffffffff16021790555082600260006101000a81548173ffffffffffffffffffffffffffffffffffffffff021916908373ffffffffffffffffffffffffffffffffffffffff1602179055506006600081548092919060010191905055508160056000600654815260200190815260200160002060006101000a81548173ffffffffffffffffffffffffffffffffffffffff021916908373ffffffffffffffffffffffffffffffffffffffff1602179055508060036000600654815260200190815260200160002060006101000a81548173ffffffffffffffffffffffffffffffffffffffff021916908373ffffffffffffffffffffffffffffffffffffffff16021790555050505050565b6000808314158015610aad57506006548311155b610aec576040517f08c379a0000000000000000000000000000000000000000000000000000000008152600401610ae390611dfc565b60405180910390fd5b610af583611518565b9050600260009054906101000a900473ffffffffffffffffffffffffffffffffffffffff1673ffffffffffffffffffffffffffffffffffffffff166319ab453c826040518263ffffffff1660e01b8152600401610b529190611d42565b600060405180830381600087803b158015610b6c57600080fd5b505af1158015610b80573d6000803e3d6000fd5b505050508073ffffffffffffffffffffffffffffffffffffffff16635bfa1b68856040518263ffffffff1660e01b8152600401610bbd9190611d42565b600060405180830381600087803b158015610bd757600080fd5b505af1158015610beb573d6000803e3d6000fd5b505050508173ffffffffffffffffffffffffffffffffffffffff168173ffffffffffffffffffffffffffffffffffffffff168573ffffffffffffffffffffffffffffffffffffffff167f83435eca805f6256e4aa778ee8b2e8aec7485fa4b643a0fff05b7df6bf68838933604051610c639190611d5d565b60405180910390a49392505050565b600073ffffffffffffffffffffffffffffffffffffffff166000809054906101000a900473ffffffffffffffffffffffffffffffffffffffff1673ffffffffffffffffffffffffffffffffffffffff161415610d03576040517f08c379a0000000000000000000000000000000000000000000000000000000008152600401610cfa90611ebc565b60405180910390fd5b6000809054906101000a900473ffffffffffffffffffffffffffffffffffffffff1673ffffffffffffffffffffffffffffffffffffffff163373ffffffffffffffffffffffffffffffffffffffff1614610d92576040517f08c379a0000000000000000000000000000000000000000000000000000000008152600401610d8990611e9c565b60405180910390fd5b6000809054906101000a900473ffffffffffffffffffffffffffffffffffffffff16600160006101000a81548173ffffffffffffffffffffffffffffffffffffffff021916908373ffffffffffffffffffffffffffffffffffffffff16021790555060008060006101000a81548173ffffffffffffffffffffffffffffffffffffffff021916908373ffffffffffffffffffffffffffffffffffffffff160217905550600160009054906101000a900473ffffffffffffffffffffffffffffffffffffffff1673ffffffffffffffffffffffffffffffffffffffff167f9ac7c65ebc1e9c5f94a0f9daaed02afefea79ae48162d49f30ab33b6e1637a1d60405160405180910390a2565b600160009054906101000a900473ffffffffffffffffffffffffffffffffffffffff1681565b600160009054906101000a900473ffffffffffffffffffffffffffffffffffffffff1673ffffffffffffffffffffffffffffffffffffffff163373ffffffffffffffffffffffffffffffffffffffff1614610f52576040517f08c379a0000000000000000000000000000000000000000000000000000000008152600401610f4990611e9c565b60405180910390fd5b600160009054906101000a900473ffffffffffffffffffffffffffffffffffffffff1673ffffffffffffffffffffffffffffffffffffffff168173ffffffffffffffffffffffffffffffffffffffff161415610fe3576040517f08c379a0000000000000000000000000000000000000000000000000000000008152600401610fda90611e7c565b60405180910390fd5b600073ffffffffffffffffffffffffffffffffffffffff168173ffffffffffffffffffffffffffffffffffffffff161415611053576040517f08c379a000000000000000000000000000000000000000000000000000000000815260040161104a90611ebc565b60405180910390fd5b8073ffffffffffffffffffffffffffffffffffffffff166000809054906101000a900473ffffffffffffffffffffffffffffffffffffffff1673ffffffffffffffffffffffffffffffffffffffff1614156110e3576040517f08c379a00000000000000000000000000000000000000000000000000000000081526004016110da90611ddc565b60405180910390fd5b806000806101000a81548173ffffffffffffffffffffffffffffffffffffffff021916908373ffffffffffffffffffffffffffffffffffffffff1602179055508073ffffffffffffffffffffffffffffffffffffffff167ff2a8c544d5befa20af407e43fa5a05305e50163fb8d06fda74206f0dc08b680f60405160405180910390a250565b600160009054906101000a900473ffffffffffffffffffffffffffffffffffffffff1673ffffffffffffffffffffffffffffffffffffffff163373ffffffffffffffffffffffffffffffffffffffff16146111f9576040517f08c379a00000000000000000000000000000000000000000000000000000000081526004016111f090611e9c565b60405180910390fd5b600073ffffffffffffffffffffffffffffffffffffffff168373ffffffffffffffffffffffffffffffffffffffff161415611269576040517f08c379a000000000000000000000000000000000000000000000000000000000815260040161126090611ebc565b60405180910390fd5b6006600081548092919060010191905055506006548373ffffffffffffffffffffffffffffffffffffffff166354fd4d506040518163ffffffff1660e01b815260040160206040518083038186803b1580156112c457600080fd5b505afa1580156112d8573d6000803e3d6000fd5b505050506040513d601f19601f820116820180604052506112fc9190810190611964565b1461133c576040517f08c379a000000000000000000000000000000000000000000000000000000000815260040161133390611e3c565b60405180910390fd5b8260056000600654815260200190815260200160002060006101000a81548173ffffffffffffffffffffffffffffffffffffffff021916908373ffffffffffffffffffffffffffffffffffffffff160217905550600073ffffffffffffffffffffffffffffffffffffffff168273ffffffffffffffffffffffffffffffffffffffff1614611419578160036000600654815260200190815260200160002060006101000a81548173ffffffffffffffffffffffffffffffffffffffff021916908373ffffffffffffffffffffffffffffffffffffffff1602179055505b600073ffffffffffffffffffffffffffffffffffffffff168173ffffffffffffffffffffffffffffffffffffffff16146114a2578060046000600654815260200190815260200160002060006101000a81548173ffffffffffffffffffffffffffffffffffffffff021916908373ffffffffffffffffffffffffffffffffffffffff1602179055505b8073ffffffffffffffffffffffffffffffffffffffff168273ffffffffffffffffffffffffffffffffffffffff168473ffffffffffffffffffffffffffffffffffffffff167ff2ac7d6a10d2f0b9b7fdad229bb1456de7a254de96bb7f55f3d22a91ea93f27f60405160405180910390a4505050565b6000806005600084815260200190815260200160002060009054906101000a900473ffffffffffffffffffffffffffffffffffffffff1660601b90506040517f3d602d80600a3d3981f3363d3d373d3d3d363d7300000000000000000000000081528160148201527f5af43d82803e903d91602b57fd5bf3000000000000000000000000000000000060288201526037816000f092505050919050565b6000813590506115c4816120d4565b92915050565b60008083601f8401126115dc57600080fd5b8235905067ffffffffffffffff8111156115f557600080fd5b60208301915083602082028301111561160d57600080fd5b9250929050565b600082601f83011261162557600080fd5b815161163861163382611f24565b611ef7565b9150818183526020840193506020810190508385602084028201111561165d57600080fd5b60005b8381101561168d578161167388826116e1565b845260208401935060208301925050600181019050611660565b5050505092915050565b60008083601f8401126116a957600080fd5b8235905067ffffffffffffffff8111156116c257600080fd5b6020830191508360208202830111156116da57600080fd5b9250929050565b6000815190506116f0816120eb565b92915050565b60008135905061170581612102565b92915050565b60008151905061171a81612102565b92915050565b60006020828403121561173257600080fd5b6000611740848285016115b5565b91505092915050565b60008060006060848603121561175e57600080fd5b600061176c868287016115b5565b935050602061177d868287016115b5565b925050604061178e868287016115b5565b9150509250925092565b600080600080608085870312156117ae57600080fd5b60006117bc878288016115b5565b94505060206117cd878288016115b5565b93505060406117de878288016115b5565b92505060606117ef878288016115b5565b91505092959194509250565b60008060006060848603121561181057600080fd5b600061181e868287016115b5565b935050602061182f868287016116f6565b9250506040611840868287016115b5565b9150509250925092565b600080600080600080600060a0888a03121561186557600080fd5b60006118738a828b016115b5565b97505060206118848a828b016116f6565b965050604088013567ffffffffffffffff8111156118a157600080fd5b6118ad8a828b016115ca565b9550955050606088013567ffffffffffffffff8111156118cc57600080fd5b6118d88a828b01611697565b935093505060806118eb8a828b016115b5565b91505092959891949750929550565b60006020828403121561190c57600080fd5b600082015167ffffffffffffffff81111561192657600080fd5b61193284828501611614565b91505092915050565b60006020828403121561194d57600080fd5b600061195b848285016116f6565b91505092915050565b60006020828403121561197657600080fd5b60006119848482850161170b565b91505092915050565b600080604083850312156119a057600080fd5b60006119ae858286016116f6565b92505060206119bf858286016115b5565b9150509250929050565b60006119d58383611a06565b60208301905092915050565b60006119ee848484611b06565b90509392505050565b611a008161207e565b82525050565b611a0f8161202c565b82525050565b611a1e8161202c565b82525050565b6000611a308385611f7a565b9350611a3b82611f4c565b8060005b85811015611a7457611a518284611fbe565b611a5b88826119c9565b9750611a6683611f60565b925050600181019050611a3f565b5085925050509392505050565b6000611a8d8385611f8b565b935083602084028501611a9f84611f56565b8060005b87811015611ae5578484038952611aba8284611fd5565b611ac58682846119e1565b9550611ad084611f6d565b935060208b019a505050600181019050611aa3565b50829750879450505050509392505050565b611b008161203e565b82525050565b6000611b128385611f9c565b9350611b1f8385846120b4565b611b28836120c3565b840190509392505050565b6000611b40601483611fad565b91507f616c72656164792d612d6e65772d6d61737465720000000000000000000000006000830152602082019050919050565b6000611b80601183611fad565b91507f6e6f742d76616c69642d6163636f756e740000000000000000000000000000006000830152602082019050919050565b6000611bc0600f83611fad565b91507f616c72656164792d646566696e656400000000000000000000000000000000006000830152602082019050919050565b6000611c00601183611fad565b91507f6e6f742d76616c69642d76657273696f6e0000000000000000000000000000006000830152602082019050919050565b6000611c40600f83611fad565b91507f616c72656164792d612d636865636b00000000000000000000000000000000006000830152602082019050919050565b6000611c80601083611fad565b91507f616c72656164792d612d6d6173746572000000000000000000000000000000006000830152602082019050919050565b6000611cc0600a83611fad565b91507f6e6f742d6d6173746572000000000000000000000000000000000000000000006000830152602082019050919050565b6000611d00601183611fad565b91507f6e6f742d76616c69642d616464726573730000000000000000000000000000006000830152602082019050919050565b611d3c81612074565b82525050565b6000602082019050611d576000830184611a15565b92915050565b6000602082019050611d7260008301846119f7565b92915050565b60006060820190508181036000830152611d93818789611a24565b90508181036020830152611da8818587611a81565b9050611db76040830184611a15565b9695505050505050565b6000602082019050611dd66000830184611af7565b92915050565b60006020820190508181036000830152611df581611b33565b9050919050565b60006020820190508181036000830152611e1581611b73565b9050919050565b60006020820190508181036000830152611e3581611bb3565b9050919050565b60006020820190508181036000830152611e5581611bf3565b9050919050565b60006020820190508181036000830152611e7581611c33565b9050919050565b60006020820190508181036000830152611e9581611c73565b9050919050565b60006020820190508181036000830152611eb581611cb3565b9050919050565b60006020820190508181036000830152611ed581611cf3565b9050919050565b6000602082019050611ef16000830184611d33565b92915050565b6000604051905081810181811067ffffffffffffffff82111715611f1a57600080fd5b8060405250919050565b600067ffffffffffffffff821115611f3b57600080fd5b602082029050602081019050919050565b6000819050919050565b6000819050919050565b6000602082019050919050565b6000602082019050919050565b600082825260208201905092915050565b600082825260208201905092915050565b600082825260208201905092915050565b600082825260208201905092915050565b6000611fcd60208401846115b5565b905092915050565b60008083356001602003843603038112611fee57600080fd5b83810192508235915060208301925067ffffffffffffffff82111561201257600080fd5b60018202360384131561202457600080fd5b509250929050565b600061203782612054565b9050919050565b60008115159050919050565b6000819050919050565b600073ffffffffffffffffffffffffffffffffffffffff82169050919050565b6000819050919050565b600061208982612090565b9050919050565b600061209b826120a2565b9050919050565b60006120ad82612054565b9050919050565b82818337600083830152505050565b6000601f19601f8301169050919050565b6120dd8161202c565b81146120e857600080fd5b50565b6120f48161204a565b81146120ff57600080fd5b50565b61210b81612074565b811461211657600080fd5b5056fea26469706673582212206b042f682511bc1ef55a59e50ea97a41e0c75be7834815faa109541f2aa6119964736f6c63430006020033",
  "source": "pragma solidity ^0.6.0;\npragma experimental ABIEncoderV2;\n\n/**\n * @title InstaIndex\n * @dev Main Contract For DeFi Smart Accounts. This is also a factory contract, Which deploys new Smart Account.\n * Also Registry for DeFi Smart Accounts.\n */\n\ninterface AccountInterface {\n    function version() external view returns (uint);\n    function enable(address authority) external;\n    function cast(address[] calldata _targets, bytes[] calldata _datas, address _origin) external payable returns (bytes32[] memory responses);\n}\n\ninterface ListInterface {\n    function init(address _account) external;\n}\n\ncontract AddressIndex {\n\n    event LogNewMaster(address indexed master);\n    event LogUpdateMaster(address indexed master);\n    event LogNewCheck(uint indexed accountVersion, address indexed check);\n    event LogNewAccount(address indexed _newAccount, address indexed _connectors, address indexed _check);\n\n    // New Master Address.\n    address private newMaster;\n    // Master Address.\n    address public master;\n    // List Registry Address.\n    address public list;\n\n    // Connectors Modules(Account Module Version => Connectors Registry Module Address).\n    mapping (uint => address) public connectors;\n    // Check Modules(Account Module Version => Check Module Address).\n    mapping (uint => address) public check;\n    // Account Modules(Account Module Version => Account Module Address).\n    mapping (uint => address) public account;\n    // Version Count of Account Modules.\n    uint public versionCount;\n\n    /**\n    * @dev Throws if the sender not is Master Address.\n    */\n    modifier isMaster() {\n        require(msg.sender == master, \"not-master\");\n        _;\n    }\n\n    /**\n     * @dev Change the Master Address.\n     * @param _newMaster New Master Address.\n     */\n    function changeMaster(address _newMaster) external isMaster {\n        require(_newMaster != master, \"already-a-master\");\n        require(_newMaster != address(0), \"not-valid-address\");\n        require(newMaster != _newMaster, \"already-a-new-master\");\n        newMaster = _newMaster;\n        emit LogNewMaster(_newMaster);\n    }\n\n    function updateMaster() external {\n        require(newMaster != address(0), \"not-valid-address\");\n        require(msg.sender == newMaster, \"not-master\");\n        master = newMaster;\n        newMaster = address(0);\n        emit LogUpdateMaster(master);\n    }\n\n    /**\n     * @dev Change the Check Address of a specific Account Module version.\n     * @param accountVersion Account Module version.\n     * @param _newCheck The New Check Address.\n     */\n    function changeCheck(uint accountVersion, address _newCheck) external isMaster {\n        require(_newCheck != check[accountVersion], \"already-a-check\");\n        check[accountVersion] = _newCheck;\n        emit LogNewCheck(accountVersion, _newCheck);\n    }\n\n    /**\n     * @dev Add New Account Module.\n     * @param _newAccount The New Account Module Address.\n     * @param _connectors Connectors Registry Module Address.\n     * @param _check Check Module Address.\n     */\n    function addNewAccount(address _newAccount, address _connectors, address _check) external isMaster {\n        require(_newAccount != address(0), \"not-valid-address\");\n        versionCount++;\n        require(AccountInterface(_newAccount).version() == versionCount, \"not-valid-version\");\n        account[versionCount] = _newAccount;\n        if (_connectors != address(0)) connectors[versionCount] = _connectors;\n        if (_check != address(0)) check[versionCount] = _check;\n        emit LogNewAccount(_newAccount, _connectors, _check);\n    }\n\n}\n\ncontract CloneFactory is AddressIndex {\n    /**\n     * @dev Clone a new Account Module.\n     * @param version Account Module version to clone.\n     */\n    function createClone(uint version) internal returns (address result) {\n        bytes20 targetBytes = bytes20(account[version]);\n        // solium-disable-next-line security/no-inline-assembly\n        assembly {\n            let clone := mload(0x40)\n            mstore(clone, 0x3d602d80600a3d3981f3363d3d373d3d3d363d73000000000000000000000000)\n            mstore(add(clone, 0x14), targetBytes)\n            mstore(add(clone, 0x28), 0x5af43d82803e903d91602b57fd5bf30000000000000000000000000000000000)\n            result := create(0, clone, 0x37)\n        }\n    }\n\n    /**\n     * @dev Check if Account Module is a clone.\n     * @param version Account Module version.\n     * @param query Account Module Address.\n     */\n    function isClone(uint version, address query) external view returns (bool result) {\n        bytes20 targetBytes = bytes20(account[version]);\n        // solium-disable-next-line security/no-inline-assembly\n        assembly {\n            let clone := mload(0x40)\n            mstore(clone, 0x363d3d373d3d3d363d7300000000000000000000000000000000000000000000)\n            mstore(add(clone, 0xa), targetBytes)\n            mstore(add(clone, 0x1e), 0x5af43d82803e903d91602b57fd5bf30000000000000000000000000000000000)\n\n            let other := add(clone, 0x40)\n            extcodecopy(query, other, 0, 0x2d)\n            result := and(\n                eq(mload(clone), mload(other)),\n                eq(mload(add(clone, 0xd)), mload(add(other, 0xd)))\n            )\n        }\n    }\n}\n\ncontract InstaIndex is CloneFactory {\n\n    event LogAccountCreated(address sender, address indexed owner, address indexed account, address indexed origin);\n\n    /**\n     * @dev Create a new DeFi Smart Account for a user and run cast function in the new Smart Account.\n     * @param _owner Owner of the Smart Account.\n     * @param accountVersion Account Module version.\n     * @param _targets Array of Target to run cast function.\n     * @param _datas Array of Data(callData) to run cast function.\n     * @param _origin Where Smart Account is created.\n     */\n    function buildWithCast(\n        address _owner,\n        uint accountVersion,\n        address[] calldata _targets,\n        bytes[] calldata _datas,\n        address _origin\n    ) external payable returns (address _account) {\n        _account = build(_owner, accountVersion, _origin);\n        if (_targets.length > 0) AccountInterface(_account).cast.value(msg.value)(_targets, _datas, _origin);\n    }\n\n    /**\n     * @dev Create a new DeFi Smart Account for a user.\n     * @param _owner Owner of the Smart Account.\n     * @param accountVersion Account Module version.\n     * @param _origin Where Smart Account is created.\n     */\n    function build(\n        address _owner,\n        uint accountVersion,\n        address _origin\n    ) public returns (address _account) {\n        require(accountVersion != 0 && accountVersion <= versionCount, \"not-valid-account\");\n        _account = createClone(accountVersion);\n        ListInterface(list).init(_account);\n        AccountInterface(_account).enable(_owner);\n        emit LogAccountCreated(msg.sender, _owner, _account, _origin);\n    }\n\n    /**\n     * @dev Setup Initial things for InstaIndex, after its been deployed and can be only run once.\n     * @param _master The Master Address.\n     * @param _list The List Address.\n     * @param _account The Account Module Address.\n     * @param _connectors The Connectors Registry Module Address.\n     */\n    function setBasics(\n        address _master,\n        address _list,\n        address _account,\n        address _connectors\n    ) external {\n        require(\n            master == address(0) &&\n            list == address(0) &&\n            account[1] == address(0) &&\n            connectors[1] == address(0) &&\n            versionCount == 0,\n            \"already-defined\"\n        );\n        master = _master;\n        list = _list;\n        versionCount++;\n        account[versionCount] = _account;\n        connectors[versionCount] = _connectors;\n    }\n\n}",
  "sourcePath": "/Users/mariejoseph/Documents/Gelato/StopLoss/instaDapp/dsa-contracts/contracts/registry/index.sol",
  "compiler": {
    "name": "solc",
    "version": "0.6.2+commit.bacdbe57.Emscripten.clang"
  },
  "schemaVersion": "3.2.4",
  "updatedAt": "2020-09-17T17:51:57.871Z",
  "devdoc": {
    "methods": {
      "addNewAccount(address,address,address)": {
        "details": "Add New Account Module.",
        "params": {
          "_check": "Check Module Address.",
          "_connectors": "Connectors Registry Module Address.",
          "_newAccount": "The New Account Module Address."
        }
      },
      "build(address,uint256,address)": {
        "details": "Create a new DeFi Smart Account for a user.",
        "params": {
          "_origin": "Where Smart Account is created.",
          "_owner": "Owner of the Smart Account.",
          "accountVersion": "Account Module version."
        }
      },
      "buildWithCast(address,uint256,address[],bytes[],address)": {
        "details": "Create a new DeFi Smart Account for a user and run cast function in the new Smart Account.",
        "params": {
          "_datas": "Array of Data(callData) to run cast function.",
          "_origin": "Where Smart Account is created.",
          "_owner": "Owner of the Smart Account.",
          "_targets": "Array of Target to run cast function.",
          "accountVersion": "Account Module version."
        }
      },
      "changeCheck(uint256,address)": {
        "details": "Change the Check Address of a specific Account Module version.",
        "params": {
          "_newCheck": "The New Check Address.",
          "accountVersion": "Account Module version."
        }
      },
      "changeMaster(address)": {
        "details": "Change the Master Address.",
        "params": {
          "_newMaster": "New Master Address."
        }
      },
      "isClone(uint256,address)": {
        "details": "Check if Account Module is a clone.",
        "params": {
          "query": "Account Module Address.",
          "version": "Account Module version."
        }
      },
      "setBasics(address,address,address,address)": {
        "details": "Setup Initial things for InstaIndex, after its been deployed and can be only run once.",
        "params": {
          "_account": "The Account Module Address.",
          "_connectors": "The Connectors Registry Module Address.",
          "_list": "The List Address.",
          "_master": "The Master Address."
        }
      }
    }
  },
  "userdoc": {
    "methods": {}
  }
}