{
  "contractName": "InstaList",
  "abi": [
    {
      "inputs": [
        {
          "internalType": "uint64",
          "name": "",
          "type": "uint64"
        }
      ],
      "name": "accountAddr",
      "outputs": [
        {
          "internalType": "address",
          "name": "",
          "type": "address"
        }
      ],
      "stateMutability": "view",
      "type": "function"
    },
    {
      "inputs": [
        {
          "internalType": "address",
          "name": "",
          "type": "address"
        }
      ],
      "name": "accountID",
      "outputs": [
        {
          "internalType": "uint64",
          "name": "",
          "type": "uint64"
        }
      ],
      "stateMutability": "view",
      "type": "function"
    },
    {
      "inputs": [
        {
          "internalType": "uint64",
          "name": "",
          "type": "uint64"
        }
      ],
      "name": "accountLink",
      "outputs": [
        {
          "internalType": "address",
          "name": "first",
          "type": "address"
        },
        {
          "internalType": "address",
          "name": "last",
          "type": "address"
        },
        {
          "internalType": "uint64",
          "name": "count",
          "type": "uint64"
        }
      ],
      "stateMutability": "view",
      "type": "function"
    },
    {
      "inputs": [
        {
          "internalType": "uint64",
          "name": "",
          "type": "uint64"
        },
        {
          "internalType": "address",
          "name": "",
          "type": "address"
        }
      ],
      "name": "accountList",
      "outputs": [
        {
          "internalType": "address",
          "name": "prev",
          "type": "address"
        },
        {
          "internalType": "address",
          "name": "next",
          "type": "address"
        }
      ],
      "stateMutability": "view",
      "type": "function"
    },
    {
      "inputs": [],
      "name": "accounts",
      "outputs": [
        {
          "internalType": "uint64",
          "name": "",
          "type": "uint64"
        }
      ],
      "stateMutability": "view",
      "type": "function"
    },
    {
      "inputs": [],
      "name": "instaIndex",
      "outputs": [
        {
          "internalType": "address",
          "name": "",
          "type": "address"
        }
      ],
      "stateMutability": "view",
      "type": "function"
    },
    {
      "inputs": [
        {
          "internalType": "address",
          "name": "",
          "type": "address"
        }
      ],
      "name": "userLink",
      "outputs": [
        {
          "internalType": "uint64",
          "name": "first",
          "type": "uint64"
        },
        {
          "internalType": "uint64",
          "name": "last",
          "type": "uint64"
        },
        {
          "internalType": "uint64",
          "name": "count",
          "type": "uint64"
        }
      ],
      "stateMutability": "view",
      "type": "function"
    },
    {
      "inputs": [
        {
          "internalType": "address",
          "name": "",
          "type": "address"
        },
        {
          "internalType": "uint64",
          "name": "",
          "type": "uint64"
        }
      ],
      "name": "userList",
      "outputs": [
        {
          "internalType": "uint64",
          "name": "prev",
          "type": "uint64"
        },
        {
          "internalType": "uint64",
          "name": "next",
          "type": "uint64"
        }
      ],
      "stateMutability": "view",
      "type": "function"
    },
    {
      "inputs": [
        {
          "internalType": "address",
          "name": "_owner",
          "type": "address"
        }
      ],
      "name": "addAuth",
      "outputs": [],
      "stateMutability": "nonpayable",
      "type": "function"
    },
    {
      "inputs": [
        {
          "internalType": "address",
          "name": "_owner",
          "type": "address"
        }
      ],
      "name": "removeAuth",
      "outputs": [],
      "stateMutability": "nonpayable",
      "type": "function"
    },
    {
      "inputs": [
        {
          "internalType": "address",
          "name": "_account",
          "type": "address"
        }
      ],
      "name": "init",
      "outputs": [],
      "stateMutability": "nonpayable",
      "type": "function"
    }
  ],
  "bytecode": "0x608060405234801561001057600080fd5b5061231a806100206000396000f3fe608060405234801561001057600080fd5b50600436106100a95760003560e01c80636cfaf5e9116100715780636cfaf5e9146102ab578063748e6e18146103175780637f3fd918146103b25780638028a9fd146103f6578063a41098bf146104bc578063f227a99f14610506576100a9565b806319ab453c146100ae5780635422224e146100f25780635f3c37f91461013657806360330d791461020157806368cd03f614610279575b600080fd5b6100f0600480360360208110156100c457600080fd5b81019080803573ffffffffffffffffffffffffffffffffffffffff1690602001909291905050506105a8565b005b6101346004803603602081101561010857600080fd5b81019080803573ffffffffffffffffffffffffffffffffffffffff169060200190929190505050610789565b005b61018c6004803603604081101561014c57600080fd5b81019080803567ffffffffffffffff169060200190929190803573ffffffffffffffffffffffffffffffffffffffff169060200190929190505050610a44565b604051808373ffffffffffffffffffffffffffffffffffffffff1673ffffffffffffffffffffffffffffffffffffffff1681526020018273ffffffffffffffffffffffffffffffffffffffff1673ffffffffffffffffffffffffffffffffffffffff1681526020019250505060405180910390f35b6102376004803603602081101561021757600080fd5b81019080803567ffffffffffffffff169060200190929190505050610ab5565b604051808273ffffffffffffffffffffffffffffffffffffffff1673ffffffffffffffffffffffffffffffffffffffff16815260200191505060405180910390f35b610281610ae8565b604051808267ffffffffffffffff1667ffffffffffffffff16815260200191505060405180910390f35b6102ed600480360360208110156102c157600080fd5b81019080803573ffffffffffffffffffffffffffffffffffffffff169060200190929190505050610b01565b604051808267ffffffffffffffff1667ffffffffffffffff16815260200191505060405180910390f35b61036d6004803603604081101561032d57600080fd5b81019080803573ffffffffffffffffffffffffffffffffffffffff169060200190929190803567ffffffffffffffff169060200190929190505050610b28565b604051808367ffffffffffffffff1667ffffffffffffffff1681526020018267ffffffffffffffff1667ffffffffffffffff1681526020019250505060405180910390f35b6103f4600480360360208110156103c857600080fd5b81019080803573ffffffffffffffffffffffffffffffffffffffff169060200190929190505050610b81565b005b61042c6004803603602081101561040c57600080fd5b81019080803567ffffffffffffffff169060200190929190505050610e3d565b604051808473ffffffffffffffffffffffffffffffffffffffff1673ffffffffffffffffffffffffffffffffffffffff1681526020018373ffffffffffffffffffffffffffffffffffffffff1673ffffffffffffffffffffffffffffffffffffffff1681526020018267ffffffffffffffff1667ffffffffffffffff168152602001935050505060405180910390f35b6104c4610ebb565b604051808273ffffffffffffffffffffffffffffffffffffffff1673ffffffffffffffffffffffffffffffffffffffff16815260200191505060405180910390f35b6105486004803603602081101561051c57600080fd5b81019080803573ffffffffffffffffffffffffffffffffffffffff169060200190929190505050610ec0565b604051808467ffffffffffffffff1667ffffffffffffffff1681526020018367ffffffffffffffff1667ffffffffffffffff1681526020018267ffffffffffffffff1667ffffffffffffffff168152602001935050505060405180910390f35b600073ffffffffffffffffffffffffffffffffffffffff163373ffffffffffffffffffffffffffffffffffffffff161461064a576040517f08c379a00000000000000000000000000000000000000000000000000000000081526004018080602001828103825260098152602001807f6e6f742d696e646578000000000000000000000000000000000000000000000081525060200191505060405180910390fd5b60008081819054906101000a900467ffffffffffffffff168092919060010191906101000a81548167ffffffffffffffff021916908367ffffffffffffffff160217905550506000809054906101000a900467ffffffffffffffff16600160008373ffffffffffffffffffffffffffffffffffffffff1673ffffffffffffffffffffffffffffffffffffffff16815260200190815260200160002060006101000a81548167ffffffffffffffff021916908367ffffffffffffffff16021790555080600260008060009054906101000a900467ffffffffffffffff1667ffffffffffffffff1667ffffffffffffffff16815260200190815260200160002060006101000a81548173ffffffffffffffffffffffffffffffffffffffff021916908373ffffffffffffffffffffffffffffffffffffffff16021790555050565b6000600160003373ffffffffffffffffffffffffffffffffffffffff1673ffffffffffffffffffffffffffffffffffffffff16815260200190815260200160002060009054906101000a900467ffffffffffffffff1667ffffffffffffffff16141561085d576040517f08c379a000000000000000000000000000000000000000000000000000000000815260040180806020018281038252600b8152602001807f6e6f742d6163636f756e7400000000000000000000000000000000000000000081525060200191505060405180910390fd5b3373ffffffffffffffffffffffffffffffffffffffff16632520e7ff826040518263ffffffff1660e01b8152600401808273ffffffffffffffffffffffffffffffffffffffff1673ffffffffffffffffffffffffffffffffffffffff16815260200191505060206040518083038186803b1580156108da57600080fd5b505afa1580156108ee573d6000803e3d6000fd5b505050506040513d602081101561090457600080fd5b8101908080519060200190929190505050610987576040517f08c379a00000000000000000000000000000000000000000000000000000000081526004018080602001828103825260098152602001807f6e6f742d6f776e6572000000000000000000000000000000000000000000000081525060200191505060405180910390fd5b6109e481600160003373ffffffffffffffffffffffffffffffffffffffff1673ffffffffffffffffffffffffffffffffffffffff16815260200190815260200160002060009054906101000a900467ffffffffffffffff16610f26565b610a4181600160003373ffffffffffffffffffffffffffffffffffffffff1673ffffffffffffffffffffffffffffffffffffffff16815260200190815260200160002060009054906101000a900467ffffffffffffffff16611360565b50565b6006602052816000526040600020602052806000526040600020600091509150508060000160009054906101000a900473ffffffffffffffffffffffffffffffffffffffff16908060010160009054906101000a900473ffffffffffffffffffffffffffffffffffffffff16905082565b60026020528060005260406000206000915054906101000a900473ffffffffffffffffffffffffffffffffffffffff1681565b6000809054906101000a900467ffffffffffffffff1681565b60016020528060005260406000206000915054906101000a900467ffffffffffffffff1681565b6004602052816000526040600020602052806000526040600020600091509150508060000160009054906101000a900467ffffffffffffffff16908060000160089054906101000a900467ffffffffffffffff16905082565b6000600160003373ffffffffffffffffffffffffffffffffffffffff1673ffffffffffffffffffffffffffffffffffffffff16815260200190815260200160002060009054906101000a900467ffffffffffffffff1667ffffffffffffffff161415610c55576040517f08c379a000000000000000000000000000000000000000000000000000000000815260040180806020018281038252600b8152602001807f6e6f742d6163636f756e7400000000000000000000000000000000000000000081525060200191505060405180910390fd5b3373ffffffffffffffffffffffffffffffffffffffff16632520e7ff826040518263ffffffff1660e01b8152600401808273ffffffffffffffffffffffffffffffffffffffff1673ffffffffffffffffffffffffffffffffffffffff16815260200191505060206040518083038186803b158015610cd257600080fd5b505afa158015610ce6573d6000803e3d6000fd5b505050506040513d6020811015610cfc57600080fd5b810190808051906020019092919050505015610d80576040517f08c379a000000000000000000000000000000000000000000000000000000000815260040180806020018281038252600d8152602001807f616c72656164792d6f776e65720000000000000000000000000000000000000081525060200191505060405180910390fd5b610ddd81600160003373ffffffffffffffffffffffffffffffffffffffff1673ffffffffffffffffffffffffffffffffffffffff16815260200190815260200160002060009054906101000a900467ffffffffffffffff166117ae565b610e3a81600160003373ffffffffffffffffffffffffffffffffffffffff1673ffffffffffffffffffffffffffffffffffffffff16815260200190815260200160002060009054906101000a900467ffffffffffffffff16611c56565b50565b60056020528060005260406000206000915090508060000160009054906101000a900473ffffffffffffffffffffffffffffffffffffffff16908060010160009054906101000a900473ffffffffffffffffffffffffffffffffffffffff16908060010160149054906101000a900467ffffffffffffffff16905083565b600081565b60036020528060005260406000206000915090508060000160009054906101000a900467ffffffffffffffff16908060000160089054906101000a900467ffffffffffffffff16908060000160109054906101000a900467ffffffffffffffff16905083565b6000600360008473ffffffffffffffffffffffffffffffffffffffff1673ffffffffffffffffffffffffffffffffffffffff16815260200190815260200160002060000160089054906101000a900467ffffffffffffffff1667ffffffffffffffff161461115757600360008373ffffffffffffffffffffffffffffffffffffffff1673ffffffffffffffffffffffffffffffffffffffff16815260200190815260200160002060000160089054906101000a900467ffffffffffffffff16600460008473ffffffffffffffffffffffffffffffffffffffff1673ffffffffffffffffffffffffffffffffffffffff16815260200190815260200160002060008367ffffffffffffffff1667ffffffffffffffff16815260200190815260200160002060000160006101000a81548167ffffffffffffffff021916908367ffffffffffffffff16021790555080600460008473ffffffffffffffffffffffffffffffffffffffff1673ffffffffffffffffffffffffffffffffffffffff1681526020019081526020016000206000600360008673ffffffffffffffffffffffffffffffffffffffff1673ffffffffffffffffffffffffffffffffffffffff16815260200190815260200160002060000160089054906101000a900467ffffffffffffffff1667ffffffffffffffff1667ffffffffffffffff16815260200190815260200160002060000160086101000a81548167ffffffffffffffff021916908367ffffffffffffffff1602179055505b6000600360008473ffffffffffffffffffffffffffffffffffffffff1673ffffffffffffffffffffffffffffffffffffffff16815260200190815260200160002060000160009054906101000a900467ffffffffffffffff1667ffffffffffffffff16141561122a5780600360008473ffffffffffffffffffffffffffffffffffffffff1673ffffffffffffffffffffffffffffffffffffffff16815260200190815260200160002060000160006101000a81548167ffffffffffffffff021916908367ffffffffffffffff1602179055505b80600360008473ffffffffffffffffffffffffffffffffffffffff1673ffffffffffffffffffffffffffffffffffffffff16815260200190815260200160002060000160086101000a81548167ffffffffffffffff021916908367ffffffffffffffff1602179055506112f4600360008473ffffffffffffffffffffffffffffffffffffffff1673ffffffffffffffffffffffffffffffffffffffff16815260200190815260200160002060000160109054906101000a900467ffffffffffffffff1660016121b6565b600360008473ffffffffffffffffffffffffffffffffffffffff1673ffffffffffffffffffffffffffffffffffffffff16815260200190815260200160002060000160106101000a81548167ffffffffffffffff021916908367ffffffffffffffff1602179055505050565b600073ffffffffffffffffffffffffffffffffffffffff16600560008367ffffffffffffffff1667ffffffffffffffff16815260200190815260200160002060010160009054906101000a900473ffffffffffffffffffffffffffffffffffffffff1673ffffffffffffffffffffffffffffffffffffffff16146115bf57600560008267ffffffffffffffff1667ffffffffffffffff16815260200190815260200160002060010160009054906101000a900473ffffffffffffffffffffffffffffffffffffffff16600660008367ffffffffffffffff1667ffffffffffffffff16815260200190815260200160002060008473ffffffffffffffffffffffffffffffffffffffff1673ffffffffffffffffffffffffffffffffffffffff16815260200190815260200160002060000160006101000a81548173ffffffffffffffffffffffffffffffffffffffff021916908373ffffffffffffffffffffffffffffffffffffffff16021790555081600660008367ffffffffffffffff1667ffffffffffffffff1681526020019081526020016000206000600560008567ffffffffffffffff1667ffffffffffffffff16815260200190815260200160002060010160009054906101000a900473ffffffffffffffffffffffffffffffffffffffff1673ffffffffffffffffffffffffffffffffffffffff1673ffffffffffffffffffffffffffffffffffffffff16815260200190815260200160002060010160006101000a81548173ffffffffffffffffffffffffffffffffffffffff021916908373ffffffffffffffffffffffffffffffffffffffff1602179055505b600073ffffffffffffffffffffffffffffffffffffffff16600560008367ffffffffffffffff1667ffffffffffffffff16815260200190815260200160002060000160009054906101000a900473ffffffffffffffffffffffffffffffffffffffff1673ffffffffffffffffffffffffffffffffffffffff1614156116a85781600560008367ffffffffffffffff1667ffffffffffffffff16815260200190815260200160002060000160006101000a81548173ffffffffffffffffffffffffffffffffffffffff021916908373ffffffffffffffffffffffffffffffffffffffff1602179055505b81600560008367ffffffffffffffff1667ffffffffffffffff16815260200190815260200160002060010160006101000a81548173ffffffffffffffffffffffffffffffffffffffff021916908373ffffffffffffffffffffffffffffffffffffffff16021790555061175a600560008367ffffffffffffffff1667ffffffffffffffff16815260200190815260200160002060010160149054906101000a900467ffffffffffffffff1660016121b6565b600560008367ffffffffffffffff1667ffffffffffffffff16815260200190815260200160002060010160146101000a81548167ffffffffffffffff021916908367ffffffffffffffff1602179055505050565b6000600460008473ffffffffffffffffffffffffffffffffffffffff1673ffffffffffffffffffffffffffffffffffffffff16815260200190815260200160002060008367ffffffffffffffff1667ffffffffffffffff16815260200190815260200160002060000160009054906101000a900467ffffffffffffffff1690506000600460008573ffffffffffffffffffffffffffffffffffffffff1673ffffffffffffffffffffffffffffffffffffffff16815260200190815260200160002060008467ffffffffffffffff1667ffffffffffffffff16815260200190815260200160002060000160089054906101000a900467ffffffffffffffff16905060008267ffffffffffffffff161461194f5780600460008673ffffffffffffffffffffffffffffffffffffffff1673ffffffffffffffffffffffffffffffffffffffff16815260200190815260200160002060008467ffffffffffffffff1667ffffffffffffffff16815260200190815260200160002060000160086101000a81548167ffffffffffffffff021916908367ffffffffffffffff1602179055505b60008167ffffffffffffffff16146119f05781600460008673ffffffffffffffffffffffffffffffffffffffff1673ffffffffffffffffffffffffffffffffffffffff16815260200190815260200160002060008367ffffffffffffffff1667ffffffffffffffff16815260200190815260200160002060000160006101000a81548167ffffffffffffffff021916908367ffffffffffffffff1602179055505b60008267ffffffffffffffff161415611a6d5780600360008673ffffffffffffffffffffffffffffffffffffffff1673ffffffffffffffffffffffffffffffffffffffff16815260200190815260200160002060000160006101000a81548167ffffffffffffffff021916908367ffffffffffffffff1602179055505b60008167ffffffffffffffff161415611aea5781600360008673ffffffffffffffffffffffffffffffffffffffff1673ffffffffffffffffffffffffffffffffffffffff16815260200190815260200160002060000160086101000a81548167ffffffffffffffff021916908367ffffffffffffffff1602179055505b611b4b600360008673ffffffffffffffffffffffffffffffffffffffff1673ffffffffffffffffffffffffffffffffffffffff16815260200190815260200160002060000160109054906101000a900467ffffffffffffffff16600161224d565b600360008673ffffffffffffffffffffffffffffffffffffffff1673ffffffffffffffffffffffffffffffffffffffff16815260200190815260200160002060000160106101000a81548167ffffffffffffffff021916908367ffffffffffffffff160217905550600460008573ffffffffffffffffffffffffffffffffffffffff1673ffffffffffffffffffffffffffffffffffffffff16815260200190815260200160002060008467ffffffffffffffff1667ffffffffffffffff168152602001908152602001600020600080820160006101000a81549067ffffffffffffffff02191690556000820160086101000a81549067ffffffffffffffff0219169055505050505050565b6000600660008367ffffffffffffffff1667ffffffffffffffff16815260200190815260200160002060008473ffffffffffffffffffffffffffffffffffffffff1673ffffffffffffffffffffffffffffffffffffffff16815260200190815260200160002060000160009054906101000a900473ffffffffffffffffffffffffffffffffffffffff1690506000600660008467ffffffffffffffff1667ffffffffffffffff16815260200190815260200160002060008573ffffffffffffffffffffffffffffffffffffffff1673ffffffffffffffffffffffffffffffffffffffff16815260200190815260200160002060010160009054906101000a900473ffffffffffffffffffffffffffffffffffffffff169050600073ffffffffffffffffffffffffffffffffffffffff168273ffffffffffffffffffffffffffffffffffffffff1614611e495780600660008567ffffffffffffffff1667ffffffffffffffff16815260200190815260200160002060008473ffffffffffffffffffffffffffffffffffffffff1673ffffffffffffffffffffffffffffffffffffffff16815260200190815260200160002060010160006101000a81548173ffffffffffffffffffffffffffffffffffffffff021916908373ffffffffffffffffffffffffffffffffffffffff1602179055505b600073ffffffffffffffffffffffffffffffffffffffff168173ffffffffffffffffffffffffffffffffffffffff1614611f245781600660008567ffffffffffffffff1667ffffffffffffffff16815260200190815260200160002060008373ffffffffffffffffffffffffffffffffffffffff1673ffffffffffffffffffffffffffffffffffffffff16815260200190815260200160002060000160006101000a81548173ffffffffffffffffffffffffffffffffffffffff021916908373ffffffffffffffffffffffffffffffffffffffff1602179055505b600073ffffffffffffffffffffffffffffffffffffffff168273ffffffffffffffffffffffffffffffffffffffff161415611fc35780600560008567ffffffffffffffff1667ffffffffffffffff16815260200190815260200160002060000160006101000a81548173ffffffffffffffffffffffffffffffffffffffff021916908373ffffffffffffffffffffffffffffffffffffffff1602179055505b600073ffffffffffffffffffffffffffffffffffffffff168173ffffffffffffffffffffffffffffffffffffffff1614156120625781600560008567ffffffffffffffff1667ffffffffffffffff16815260200190815260200160002060010160006101000a81548173ffffffffffffffffffffffffffffffffffffffff021916908373ffffffffffffffffffffffffffffffffffffffff1602179055505b6120ab600560008567ffffffffffffffff1667ffffffffffffffff16815260200190815260200160002060010160149054906101000a900467ffffffffffffffff16600161224d565b600560008567ffffffffffffffff1667ffffffffffffffff16815260200190815260200160002060010160146101000a81548167ffffffffffffffff021916908367ffffffffffffffff160217905550600660008467ffffffffffffffff1667ffffffffffffffff16815260200190815260200160002060008573ffffffffffffffffffffffffffffffffffffffff1673ffffffffffffffffffffffffffffffffffffffff168152602001908152602001600020600080820160006101000a81549073ffffffffffffffffffffffffffffffffffffffff02191690556001820160006101000a81549073ffffffffffffffffffffffffffffffffffffffff0219169055505050505050565b60008267ffffffffffffffff1682840191508167ffffffffffffffff161015612247576040517f08c379a00000000000000000000000000000000000000000000000000000000081526004018080602001828103825260148152602001807f64732d6d6174682d6164642d6f766572666c6f7700000000000000000000000081525060200191505060405180910390fd5b92915050565b60008267ffffffffffffffff1682840391508167ffffffffffffffff1611156122de576040517f08c379a00000000000000000000000000000000000000000000000000000000081526004018080602001828103825260158152602001807f64732d6d6174682d7375622d756e646572666c6f77000000000000000000000081525060200191505060405180910390fd5b9291505056fea2646970667358221220b0a47090487c6467f6937d19a31837c7d8ac58944070d18e5ad78c3571566ac764736f6c63430006020033",
  "source": "pragma solidity ^0.6.0;\n\n/**\n * @title InstaList\n * @dev Registry For DeFi Smart Account Authorised user.\n */\n\ninterface AccountInterface {\n    function isAuth(address _user) external view returns (bool);\n}\n\n\ncontract DSMath {\n\n    function add(uint64 x, uint64 y) internal pure returns (uint64 z) {\n        require((z = x + y) >= x, \"ds-math-add-overflow\");\n    }\n\n    function sub(uint64 x, uint64 y) internal pure returns (uint64 z) {\n        require((z = x - y) <= x, \"ds-math-sub-underflow\");\n    }\n\n}\n\n\ncontract Variables is DSMath {\n\n    // InstaIndex Address.\n    address public constant instaIndex = 0x0000000000000000000000000000000000000000;\n\n    // Smart Account Count.\n    uint64 public accounts;\n    // Smart Account ID (Smart Account Address => Account ID).\n    mapping (address => uint64) public accountID;\n    // Smart Account Address (Smart Account ID => Smart Account Address).\n    mapping (uint64 => address) public accountAddr;\n\n    // User Link (User Address => UserLink(Account ID of First and Last And Count of Smart Accounts)).\n    mapping (address => UserLink) public userLink;\n    // Linked List of Users (User Address => Smart Account ID => UserList(Previous and next Account ID)).\n    mapping (address => mapping(uint64 => UserList)) public userList;\n\n    struct UserLink {\n        uint64 first;\n        uint64 last;\n        uint64 count;\n    }\n    struct UserList {\n        uint64 prev;\n        uint64 next;\n    }\n\n    // Account Link (Smart Account ID => AccountLink).\n    mapping (uint64 => AccountLink) public accountLink; // account => account linked list connection\n    // Linked List of Accounts (Smart Account ID => Account Address => AccountList).\n    mapping (uint64 => mapping (address => AccountList)) public accountList; // account => user address => list\n\n    struct AccountLink {\n        address first;\n        address last;\n        uint64 count;\n    }\n    struct AccountList {\n        address prev;\n        address next;\n    }\n\n}\n\ncontract Configure is Variables {\n\n    /**\n     * @dev Add Account to User Linked List.\n     * @param _owner Account Owner.\n     * @param _account Smart Account Address.\n    */\n    function addAccount(address _owner, uint64 _account) internal {\n        if (userLink[_owner].last != 0) {\n            userList[_owner][_account].prev = userLink[_owner].last;\n            userList[_owner][userLink[_owner].last].next = _account;\n        }\n        if (userLink[_owner].first == 0) userLink[_owner].first = _account;\n        userLink[_owner].last = _account;\n        userLink[_owner].count = add(userLink[_owner].count, 1);\n    }\n\n    /**\n     * @dev Remove Account from User Linked List.\n     * @param _owner Account Owner/User.\n     * @param _account Smart Account Address.\n    */\n    function removeAccount(address _owner, uint64 _account) internal {\n        uint64 _prev = userList[_owner][_account].prev;\n        uint64 _next = userList[_owner][_account].next;\n        if (_prev != 0) userList[_owner][_prev].next = _next;\n        if (_next != 0) userList[_owner][_next].prev = _prev;\n        if (_prev == 0) userLink[_owner].first = _next;\n        if (_next == 0) userLink[_owner].last = _prev;\n        userLink[_owner].count = sub(userLink[_owner].count, 1);\n        delete userList[_owner][_account];\n    }\n\n    /**\n     * @dev Add Owner to Account Linked List.\n     * @param _owner Account Owner.\n     * @param _account Smart Account Address.\n    */\n    function addUser(address _owner, uint64 _account) internal {\n        if (accountLink[_account].last != address(0)) {\n            accountList[_account][_owner].prev = accountLink[_account].last;\n            accountList[_account][accountLink[_account].last].next = _owner;\n        }\n        if (accountLink[_account].first == address(0)) accountLink[_account].first = _owner;\n        accountLink[_account].last = _owner;\n        accountLink[_account].count = add(accountLink[_account].count, 1);\n    }\n\n    /**\n     * @dev Remove Owner from Account Linked List.\n     * @param _owner Account Owner.\n     * @param _account Smart Account Address.\n    */\n    function removeUser(address _owner, uint64 _account) internal {\n        address _prev = accountList[_account][_owner].prev;\n        address _next = accountList[_account][_owner].next;\n        if (_prev != address(0)) accountList[_account][_prev].next = _next;\n        if (_next != address(0)) accountList[_account][_next].prev = _prev;\n        if (_prev == address(0)) accountLink[_account].first = _next;\n        if (_next == address(0)) accountLink[_account].last = _prev;\n        accountLink[_account].count = sub(accountLink[_account].count, 1);\n        delete accountList[_account][_owner];\n    }\n\n}\n\ncontract InstaList is Configure {\n\n    /**\n     * @dev Enable Auth for Smart Account.\n     * @param _owner Owner Address.\n    */\n    function addAuth(address _owner) external {\n        require(accountID[msg.sender] != 0, \"not-account\");\n        require(AccountInterface(msg.sender).isAuth(_owner), \"not-owner\");\n        addAccount(_owner, accountID[msg.sender]);\n        addUser(_owner, accountID[msg.sender]);\n    }\n\n    /**\n     * @dev Disable Auth for Smart Account.\n     * @param _owner Owner Address.\n    */\n    function removeAuth(address _owner) external {\n        require(accountID[msg.sender] != 0, \"not-account\");\n        require(!AccountInterface(msg.sender).isAuth(_owner), \"already-owner\");\n        removeAccount(_owner, accountID[msg.sender]);\n        removeUser(_owner, accountID[msg.sender]);\n    }\n\n    /**\n     * @dev Setup Initial configuration of Smart Account.\n     * @param _account Smart Account Address.\n    */\n    function init(address  _account) external {\n        require(msg.sender == instaIndex, \"not-index\");\n        accounts++;\n        accountID[_account] = accounts;\n        accountAddr[accounts] = _account;\n    }\n\n}",
  "sourcePath": "/Users/mariejoseph/Documents/Gelato/StopLoss/instaDapp/dsa-contracts/contracts/registry/list.sol",
  "compiler": {
    "name": "solc",
    "version": "0.6.2+commit.bacdbe57.Emscripten.clang"
  },
  "schemaVersion": "3.2.4",
  "updatedAt": "2020-09-17T17:51:57.885Z",
  "devdoc": {
    "methods": {
      "addAuth(address)": {
        "details": "Enable Auth for Smart Account.",
        "params": {
          "_owner": "Owner Address."
        }
      },
      "init(address)": {
        "details": "Setup Initial configuration of Smart Account.",
        "params": {
          "_account": "Smart Account Address."
        }
      },
      "removeAuth(address)": {
        "details": "Disable Auth for Smart Account.",
        "params": {
          "_owner": "Owner Address."
        }
      }
    }
  },
  "userdoc": {
    "methods": {}
  }
}